:10000000E0A00020259203009D170100152C080098
:10001000C1A00700D7A00700EBA007006F57654EEF
:100020000000000000000000000000004B610A001A
:10003000292C080000000000117706008D770600CB
:10004000812C080005900300FD2C0800112D0800EC
:10005000812C0800812C08000D2D0800812C08003F
:10006000812C0800012D0800052D080015900300C3
:10007000812C080025900300812C0800812C0800A9
:10008000812C0800812C0800812C0800812C08009C
:10009000812C0800812C0800812C0800812C08008C
:1000A000812C0800812C0800812C0800812C08007C
:1000B000152D0800812C0800000000000000000041
:1000C000812C0800812C0800812C0800812C08005C
:1000D000812C0800812C0800812C0800812C08004C
:1000E000812C0800F92C0800812C08000000000079
:1000F00000000000812C080000000000092D08000D
:080100009083070001000000DC
:1001100000B518F0C3F802DF0DF0D6BD00B518F039
:10012000BDF802DF0DF0ECBD00B518F0B7F802DF46
:100130000DF0EEBD00B518F0B1F802DF0DF0EEBD28
:1001400000B518F0ABF802DF0DF0EEBD00B518F009
:10015000A5F802DF78F088BC00B518F09FF802DF40
:100160000DF0E8BD00B518F099F802DF78F0F6BFA1
:1001700000B518F093F802DF79F005B800B518F073
:100180008DF802DF79F004B800B518F087F802DFC7
:1001900079F003B800B518F081F802DF79F008B8FB
:1001A00000B518F07BF802DF79F00AB800B518F056
:1001B00075F802DF79F015B800B518F06FF802DFB6
:1001C00079F014B800B518F069F802DF79F02CB8AE
:1001D00000B518F063F802DF79F02BB800B518F01D
:1001E0005DF802DF79F036B800B518F057F802DF95
:1001F00079F041B800B518F051F802DF10F0EABF0D
:1002000000B518F04BF802DF12F0DABB00B518F0B9
:1002100045F802DF7BF0CBBB00B518F03FF802DFFA
:100220007BF0D8BB00B518F039F802DF7BF0F2BBE9
:1002300000B518F033F802DF7BF009BC00B518F008
:100240002DF802DF7BF005BC00B518F027F802DFBF
:1002500017F04EBF00B518F021F802DF7BF0FBBBB2
:1002600000B518F01BF802DF7BF00BBC00B518F0EE
:1002700015F802DF7BF00FBC00B518F00FF802DFB5
:100280007BF03CBC00B518F009F802DF7BF038BC0D
:1002900000B518F003F802DF7BF042BC00B517F0A0
:1002A000FDFF02DF17F046BF00B517F0F7FF02DFD2
:1002B0007BF044BC00B517F0F1FF02DF7BF054BCCB
:1002C00000B517F0EBFF02DF7BF061BC00B517F063
:1002D000E5FF02DF7BF070BC02AB03E9030000B571
:1002E00017F0DCFF02DF7BF069BC00B517F0D6FF2A
:1002F00002DF7BF078BC00B517F0D0FF02DF7BF0A7
:1003000091BC00B517F0CAFF02DF7BF0A3BC00B5BB
:1003100017F0C4FF02DF7BF0C2BC00B517F0BEFFD0
:1003200002DF7BF0D6BC00B517F0B8FF02DF7BF030
:10033000E4BC00B517F0B2FF02DF17F03BBF00B519
:1003400017F0ACFF02DF7BF011BD00B517F0A6FF80
:1003500002DF7BF00DBD00B517F0A0FF02DF7BF0E0
:1003600009BD00B517F09AFF02DF7BF005BD00B5AF
:1003700017F094FF02DF7BF001BD00B517F08EFF90
:1003800002DF7BF0FDBC00B517F088FF02DF7BF0D9
:10039000F9BC00B517F082FF02DF7BF008BD00B5A5
:1003A00017F07CFF02DF7BF004BD00B517F076FF8D
:1003B00002DF7BF000BD00B517F070FF02DF7BF0BD
:1003C0000BBD00B517F06AFF02DF7BF01ABD00B568
:1003D00017F064FF02DF7BF029BD00B517F05EFF68
:1003E00002DF7BF026BD00B517F058FF02DF7BF07F
:1003F000C6BD00B517F052FF02DF7BF0C2BD00B5ED
:1004000017F04CFF02DF7BF0DCBD00B517F046FFB4
:1004100002DF7CF014BE00B517F040FF02DF7CF075
:100420007FBE00B517F03AFF02DF8DF073B800B55C
:1004300017F034FF02DF8DF072B800B517F02EFF11
:1004400002DF39F0F7BA00B517F028FF02DF39F004
:1004500021BB00B517F022FF02DF39F047BB00B522
:1004600017F01CFF02DF8DF08FB800B517F016FFF4
:1004700002DF8DF092BB00B517F010FF02DF8DF0A8
:1004800034BC00B517F00AFF02DF93F0D4BB00B50F
:1004900017F004FF02DF93F04ABC00B517F0FEFE30
:1004A00002DF93F0C6BC00B517F0F8FE02DF93F050
:1004B000D1BC00B517F0F2FE02DF93F0DFBC00B54F
:1004C00017F0ECFE02DF93F0F2BC00B517F0E6FE89
:1004D00002DF93F001BD00B517F0E0FE02DF93F0FC
:1004E00042BD00B517F0DAFE02DF93F055BD00B54E
:1004F00017F0D4FE02DF93F065BD00B517F0CEFE15
:1005000002DF93F088BD00B517F0C8FE02DF93F05C
:100510009DBD00B517F0C2FE02DF93F0E6BD00B549
:1005200017F0BCFE02DF9BF096BC00B517F0B6FEDC
:1005300002DF48F0A1BD00B517F0B0FE02DF48F0C1
:10054000CDBD00B517F0AAFE02DF48F001BE00B530
:1005500017F0A4FE02DF48F01FBE00B517F09EFEA4
:1005600002DF48F03BBE00B517F098FE02DF48F00E
:1005700059BE00B517F092FE02DF48F067BE00B525
:1005800017F08CFE02DF48F01FBF00B517F086FEA3
:1005900002DF48F031BF00B517F080FE02DF9CF0AB
:1005A0006CB900B517F07AFE02DF9CF09EBA00B578
:1005B00017F074FE02DF9CF003BB00B517F06EFE6F
:1005C00002DF9CF076BB00B517F068FE02DF4AF050
:1005D00087BD00B517F062FE02DF4CF031B900B5FF
:1005E00017F05CFE02DF4CF031B900B517F056FE93
:1005F00002DF4CF0C1BA00B517F050FE02DF4CF03C
:1006000009BB00B517F04AFE02DF4CF085BB00B510
:1006100017F044FE02DF9DF07BBA00B517F03EFEF6
:1006200002DF4DF057BA00B517F038FE02DF4DF08B
:100630007FBA00B517F032FE02DF9DF089BA00B52F
:1006400017F02CFE02DF9DF085BA00B517F026FEEC
:1006500002DF4FF099BB00B517F020FE02DF4FF02C
:10066000BFBB00B517F01AFE02DF4FF0BFBB00B5ED
:1006700017F014FE02DF4FF0FFBB00B517F00EFEBF
:1006800002DF9DF0FBBD00B517F008FE02DF4FF062
:1006900029BC00B517F002FE02DF4FF02BBC00B5FD
:1006A00017F0FCFD02DF4FF053BC00B517F0F6FD6C
:1006B00002DF9DF0F0BD00B517F0F0FD02DF9DF008
:1006C00002BE00B517F0EAFD02DF9DF0FEBD00B5E9
:1006D00017F0E4FD02DF9DF017BE00B517F0DEFD58
:1006E00002DF9EF0BDB900B517F0D8FD02DF9EF025
:1006F000C1BA00B517F0D2FD02DF9FF0E3B900B533
:1007000017F0CCFD02DF9FF0E2B900B517F0C6FD8F
:1007100002DF9FF0DEB900B517F0C0FD02DF9FF0E9
:10072000EDB900B517F0BAFD02DF9FF0B1BE00B51C
:1007300017F0B4FD02DF55F01FBF00B517F0AEFD96
:1007400002DF9FF000BF00B517F0A8FD02DF9FF0A9
:10075000C9BE00B517F0A2FD02DF55F08BBE00B593
:1007600017F09CFD02DF56F0F9B800B517F096FDC2
:1007700002DFA1F04CB900B517F090FD02DF5AF08E
:100780005FBD00B517F08AFD02DF5AF06BBD00B502
:1007900017F084FD02DFA1F01ABE00B517F07EFD50
:1007A00002DFA4F0AFBA00B517F078FD02DF63F006
:1007B0007FB800B517F072FD02DF63F0F5B800B541
:1007C00017F06CFD02DF63F015B900B517F066FD98
:1007D00002DF63F033B90000844641EA000313F0FE
:1007E00003036DD1403A41D351F8043B40F8043B38
:1007F00051F8043B40F8043B51F8043B40F8043BFB
:1008000051F8043B40F8043B51F8043B40F8043BEA
:1008100051F8043B40F8043B51F8043B40F8043BDA
:1008200051F8043B40F8043B51F8043B40F8043BCA
:1008300051F8043B40F8043B51F8043B40F8043BBA
:1008400051F8043B40F8043B51F8043B40F8043BAA
:1008500051F8043B40F8043B51F8043B40F8043B9A
:1008600051F8043B40F8043B403ABDD2303211D33A
:1008700051F8043B40F8043B51F8043B40F8043B7A
:1008800051F8043B40F8043B51F8043B40F8043B6A
:10089000103AEDD20C3205D351F8043B40F8043B3A
:1008A000043AF9D2043208D0D2071CBF11F8013B38
:1008B00000F8013B01D30B8803806046704700BFFE
:1008C000082A13D38B078DD010F003038AD0C3F10D
:1008D0000403D21ADB071CBF11F8013B00F8013BEF
:1008E00080D331F8023B20F8023B7BE7043AD9D3AE
:1008F000013A11F8013B00F8013BF9D20B78037083
:100900004B7843708B7883706046704771B484076E
:1009100046D0541E002A41D0CDB2034602E0621EEA
:10092000E4B3144603F8015B9A07F8D1032C2ED9DF
:10093000CDB245EA05250F2C45EA054519D903F145
:1009400010022646103E0F2E42F8105C42F80C5C56
:1009500042F8085C42F8045C02F11002F2D8A4F1FB
:10096000100222F00F0204F00F041032032C134483
:100970000DD91E462246043A032A46F8045BFAD8EB
:10098000221F22F003020432134404F003042CB1AA
:10099000C9B21C4403F8011BA342FBD171BC7047D0
:1009A00014460346C2E700BF81F0004102E000BFE9
:1009B00083F0004330B54FEA41044FEA430594EA1F
:1009C000050F08BF90EA020F1FBF54EA000C55EA5A
:1009D000020C7FEA645C7FEA655C00F0E2804FEA2B
:1009E0005454D4EB5555B8BF6D420CDD2C4480EA0D
:1009F000020281EA030382EA000083EA010180EA3D
:100A0000020281EA0303362D88BF30BD11F0004F8A
:100A10004FEA01314FF4801C4CEA113102D04042C0
:100A200061EB410113F0004F4FEA03334CEA1333FB
:100A300002D0524263EB430394EA050F00F0A78013
:100A4000A4F10104D5F1200E0DDB02FA0EFC22FA0E
:100A500005F2801841F1000103FA0EF2801843FA02
:100A600005F359410EE0A5F120050EF1200E012AF3
:100A700003FA0EFC28BF4CF0020C43FA05F3C01831
:100A800051EBE37101F0004507D54FF0000EDCF1AA
:100A9000000C7EEB00006EEB0101B1F5801F1BD353
:100AA000B1F5001F0CD349085FEA30004FEA3C0C57
:100AB00004F101044FEA445212F5800F80F09A804D
:100AC000BCF1004F08BF5FEA500C50F1000041EB51
:100AD000045141EA050130BD5FEA4C0C404141EB55
:100AE0000101013C28BFB1F5801FE9D291F0000F50
:100AF00004BF01460020B1FA81F308BF2033A3F1FF
:100B00000B03B3F120020CDA0C3208DD02F1140CF5
:100B1000C2F10C0201FA0CF021FA02F10CE002F130
:100B20001402D8BFC2F1200C01FA02F120FA0CFC29
:100B3000DCBF41EA0C019040E41AA2BF01EB045172
:100B4000294330BD6FEA04041F3C1CDA0C340EDC70
:100B500004F11404C4F1200220FA04F001FA02F3B3
:100B600040EA030021FA04F345EA030130BDC4F171
:100B70000C04C4F1200220FA02F001FA04F340EA66
:100B80000300294630BD21FA04F0294630BD94F017
:100B9000000F83F4801306BF81F480110134013DFE
:100BA0004EE77FEA645C18BF7FEA655C29D094EA6F
:100BB000050F08BF90EA020F05D054EA000C04BFED
:100BC0001946104630BD91EA030F1EBF00210020D8
:100BD00030BD5FEA545C05D14000494128BF41F077
:100BE000004130BD14F580043CBF01F5801130BDDB
:100BF00001F0004545F0FE4141F470014FF0000066
:100C000030BD7FEA645C1ABF194610467FEA655C16
:100C10001CBF0B46024650EA013406BF52EA0335B8
:100C200091EA030F41F4002130BD00BF90F0000FA6
:100C300004BF0021704730B54FF4806404F13204E2
:100C40004FF000054FF0000150E700BF90F0000F9B
:100C500004BF0021704730B54FF4806404F13204C2
:100C600010F0004548BF40424FF000013EE700BF92
:100C700042004FEAE2014FEA31014FEA02701FBF22
:100C800012F07F4393F07F4F81F06051704732F054
:100C90007F4208BF704793F07F4F04BF41F40021AB
:100CA000704730B54FF4607401F0004521F0004109
:100CB0001CE700BF50EA010208BF704730B54FF093
:100CC00000050AE050EA010208BF704730B511F094
:100CD000004502D5404261EB41014FF4806404F1CC
:100CE00032045FEA915C3FF4D8AE4FF003025FEA52
:100CF000DC0C18BF03325FEADC0C18BF033202EBD6
:100D0000DC02C2F1200300FA03FC20FA02F001FA2F
:100D100003FE40EA0E0021FA02F11444BDE600BFD2
:100D200070B54FF0FF0C4CF4E06C1CEA11541DBF81
:100D30001CEA135594EA0C0F95EA0C0F00F0DEF84C
:100D40002C4481EA030621EA4C5123EA4C5350EA31
:100D5000013518BF52EA033541F4801143F4801382
:100D600038D0A0FB02CE4FF00005E1FB02E506F013
:100D70000042E0FB03E54FF00006E1FB03569CF068
:100D8000000F18BF4EF0010EA4F1FF04B6F5007F6E
:100D900064F5407404D25FEA4E0E6D4146EB0606E0
:100DA00042EAC62141EA55514FEAC52040EA5E5069
:100DB0004FEACE2EB4F1FD0C88BFBCF5E06F1ED813
:100DC000BEF1004F08BF5FEA500E50F1000041EB4A
:100DD000045170BD06F0004646EA010140EA0200F7
:100DE00081EA0301B4EB5C04C2BFD4EB0C0541EA19
:100DF000045170BD41F480114FF0000E013C00F32E
:100E0000AB8014F1360FDEBF002001F0004170BD51
:100E1000C4F10004203C35DA0C341BDC04F114046A
:100E2000C4F1200500FA05F320FA04F001FA05F2F6
:100E300040EA020001F0004221F0004110EBD370C3
:100E400021FA04F642EB06015EEA430E08BF20EAEF
:100E5000D37070BDC4F10C04C4F1200500FA04F392
:100E600020FA05F001FA04F240EA020001F0004124
:100E700010EBD37041F100015EEA430E08BF20EA97
:100E8000D37070BDC4F1200500FA05F24EEA020EDF
:100E900020FA04F301FA05F243EA020321FA04F00E
:100EA00001F0004121FA04F220EA020000EBD370C5
:100EB0005EEA430E08BF20EAD37070BD94F0000FC5
:100EC0000FD101F00046400041EB010111F4801FF9
:100ED00008BF013CF7D041EA060195F0000F18BFAA
:100EE000704703F00046520043EB030313F4801FE6
:100EF00008BF013DF7D043EA0603704794EA0C0FA0
:100F00000CEA135518BF95EA0C0F0CD050EA4106B5
:100F100018BF52EA4306D1D181EA030101F0004132
:100F20004FF0000070BD50EA410606BF104619465A
:100F300052EA430619D094EA0C0F02D150EA013666
:100F400013D195EA0C0F05D152EA03361CBF1046A7
:100F500019460AD181EA030101F0004141F0FE4146
:100F600041F470014FF0000070BD41F0FE4141F4CA
:100F7000780170BD70B54FF0FF0C4CF4E06C1CEACA
:100F800011541DBF1CEA135594EA0C0F95EA0C0F7F
:100F900000F0A7F8A4EB050481EA030E52EA03353A
:100FA0004FEA013100F088804FEA03334FF080555B
:100FB00045EA131343EA12634FEA022245EA111588
:100FC00045EA10654FEA00260EF000419D4208BF39
:100FD000964244F1FD0404F5407402D25B084FEAE6
:100FE0003202B61A65EB03055B084FEA32024FF492
:100FF00080104FF4002CB6EB020E75EB030E22BFEF
:10100000B61A754640EA0C005B084FEA3202B6EBAE
:10101000020E75EB030E22BFB61A754640EA5C005D
:101020005B084FEA3202B6EB020E75EB030E22BFED
:10103000B61A754640EA9C005B084FEA3202B6EBEE
:10104000020E75EB030E22BFB61A754640EADC00AD
:1010500055EA060E18D04FEA051545EA16754FEA0F
:1010600006164FEAC30343EA52734FEAC2025FEA2D
:101070001C1CC0D111F4801F0BD141EA00014FF0BC
:1010800000004FF0004CB6E711F4801F04BF01438D
:101090000020B4F1FD0C88BFBCF5E06F3FF6AFAEA9
:1010A000B5EB030C04BFB6EB020C5FEA500C50F139
:1010B000000041EB045170BD0EF0004E4EEA1131BC
:1010C00014EB5C04C2BFD4EB0C0541EA045170BDC3
:1010D00041F480114FF0000E013C90E645EA060E07
:1010E0008DE60CEA135594EA0C0F08BF95EA0C0F35
:1010F0003FF43BAF94EA0C0F0AD150EA01347FF47D
:1011000034AF95EA0C0F7FF425AF104619462CE753
:1011100095EA0C0F06D152EA03353FF4FDAE1046B6
:10112000194622E750EA410618BF52EA43067FF407
:10113000C5AE50EA41047FF40DAF52EA43057FF497
:10114000EBAE12E74FF0FF3C06E000BF4FF0010CA2
:1011500002E000BF4FF0010C4DF804CD4FEA410C06
:101160007FEA6C5C4FEA430C18BF7FEA6C5C1BD0D3
:1011700001B050EA410C0CBF52EA430C91EA030F54
:1011800002BF90EA020F0020704710F1000F91EAB1
:10119000030F58BF994208BF90422CBFD8176FEA7F
:1011A000E37040F0010070474FEA410C7FEA6C5C4D
:1011B00002D150EA013C07D14FEA430C7FEA6C5C54
:1011C000D6D152EA033CD3D05DF8040B704700BF80
:1011D0008446104662468C461946634600E000BFCE
:1011E00001B5FFF7B7FF002848BF10F1000F01BDA0
:1011F0004DF808EDFFF7F4FF0CBF012000205DF86B
:1012000008FB00BF4DF808EDFFF7EAFF34BF0120EF
:1012100000205DF808FB00BF4DF808EDFFF7E0FF88
:1012200094BF012000205DF808FB00BF4DF808EDD9
:10123000FFF7CEFF94BF012000205DF808FB00BF40
:101240004DF808EDFFF7C4FF34BF012000205DF822
:1012500008FB00BF4FEA410C7FEA6C5C02D150EA08
:10126000013C0AD14FEA430C7FEA6C5C02D152EA9E
:10127000033C02D14FF0000070474FF0010070476F
:101280004FEA410212F5001215D211D56FF47873AE
:10129000B3EB625212D94FEAC12343F0004343EA51
:1012A000505311F0004F23FA02F018BF404270472C
:1012B0004FF00000704750EA013005D111F00040B6
:1012C00008BF6FF0004070474FF00000704700BF4C
:1012D0004A0011D212F5001211D20DD56FF47873B5
:1012E000B3EB62520ED44FEAC12343F0004343EA0A
:1012F000505323FA02F070474FF00000704750EA55
:10130000013002D14FF0FF3070474FF000007047BE
:101310007BB972B90029BEBF00204FF0004106E042
:1013200008BF00281CBF6FF000414FF0FF3000F0F5
:1013300057B8ADF1080C6DE904CE002909DB002B8C
:101340001ADB77F0A5F8DDF804E0DDE9022304B04C
:101350007047404261EB4101002B1BDB77F098F8AE
:10136000DDF804E0DDE9022304B0404261EB410115
:10137000524263EB43037047524263EB430377F0FF
:1013800087F8DDF804E0DDE9022304B0404261EBB8
:1013900041017047524263EB430377F079F8DDF87F
:1013A00004E0DDE9022304B0524263EB43037047DB
:1013B00053B94AB9002908BF00281CBF4FF0FF31BC
:1013C0004FF0FF3000F00CB8ADF1080C6DE904CE21
:1013D00077F05EF8DDF804E0DDE9022304B0704741
:1013E000704700BF00000000000000000000000087
:1013F00030BF00BF704700BF00BF00BF00BF00BFCD
:101400002DE9F041AEB0002300931A46194640F68C
:1014100003402DF089FE0446002840F0CD801EAF29
:101420004FF0080802460146CDF800803B4641F2E5
:1014300001002DF079FE0446002840F0BD809DF8A3
:1014400078002DF09FFF40230093224621460EABEB
:1014500041F202002DF068FE0446002840F0AC8006
:101460000EAE0FCE3D460FC50FCE0FC50FCE0FC52A
:1014700096E80F0085E80F0022AE0FCE6D460FC52F
:101480000FCE0FC596E80F0085E80F0097E80F0014
:101490002DF084FF2DF07CFF054638462DF094FF9B
:1014A00051A3D3E900230094CDE90C230CA92346D2
:1014B000424640F601402DF037FE044600287BD11D
:1014C000062D13D99DF88E305B070FD54FF400021F
:1014D0000023CDE90E230090034642460EA940F6B4
:1014E00063402DF021FE0446002865D12DF050FF09
:1014F000062865D81F220023CDE91E230023009370
:101500000822394642F201002DF00EFE0446002862
:1015100052D103230093024601463B4642F20200A9
:101520002DF002FE0446002846D1BDF878209DF833
:101530007A106AB90723009311463B4641F2050031
:101540002DF0F2FD0446B8BBBDF87820BDF87B1045
:1015500010462DF0CFFD044670BB082300930246D1
:1015600001463B4642F203002DF0DEFD044618BB67
:101570001E982DF001FF06230093224621463B468C
:1015800041F209002DF0D0FD0446A8B938462DF0EF
:101590009BFF134B5D69F5B1202221463846FFF7CA
:1015A000B5F94FF6FF7239460220A84798B9384678
:1015B0002EF0BAF886F0D8FC20462EB0BDE8F081B7
:1015C000072804D0082804D140F27F6293E73F2225
:1015D00091E7044A8FE70020EAE700BFAFF30080FD
:1015E000CC0500207FFE0F009080000200800020CC
:1015F0002DE9F84F0E4691460746002839D0086875
:10160000A5F0C7FB344B0022FFF7D2F9334B002281
:10161000FFF786FB012F04460D4627D07068A5F022
:10162000B8FB2D4B0022FFF7C3F92C4B0022FFF72C
:1016300077FB06460F462A4B002220462946FFF735
:10164000E1FD70B922A3D3E9002320462946FFF724
:10165000F7FD30B9224B002230463946FFF7D2FD64
:1016600058B1BDE8F84F1F4899F0BCBF00260027CD
:10167000E1E70024002526462F46012044F08EFD98
:101680008046A5F068FB0146F0B9174BD3E900B0DE
:10169000421C5A60182202FB00F80BEB080A504665
:1016A000FFF734F929460BF808902046FFF7E8FDCC
:1016B0003946AAF804003046FFF7E2FDAAF8060012
:1016C000BDE8F84FA5F020BC4046BDE8F88F00BF4C
:1016D00000000000C0FFDF400000E03F00002040AD
:1016E0000000E0C03CBD0D005CFA032000000000DB
:1016F00008B5A5F04EFB0A4B0022FFF711FB06A32D
:10170000D3E90023FFF736FCFFF7BAFD00F5804070
:1017100008BD00BFAFF30080182D4454FB211940D1
:101720000000F0400000000038B50A46044610B33F
:10173000002511B34EF660202B46A4FB0001FFF7F5
:1017400037FE114B83428D412CBF40F2F51540F21C
:10175000EA3517F0A1FFA5FB0454A5FB005100FBDF
:1017600004110A48281806A3D3E9002341F1000117
:10177000FFF71EFE0446204638BD0C46FBE700BFBF
:1017800000E1F50500000000C0D4010080F0FA027D
:101790002DE9F04FD0E9004995B04369059306461D
:1017A0000420A8F07DFBA388C3F3C002089203F0D5
:1017B0000202002A4FF6016218BF4FF4004207925E
:1017C00014BF8022FF2259078346069241D56389C0
:1017D0000393A3890993E3890A933369119300233F
:1017E000CDF804B000934B4613F801AB0B93BAF15C
:1017F000000F34D00B9F5346964A32F813300293B1
:1018000003F46075B5F5007F0493C0F010813B7858
:10181000069A9A422AD90137099A9A423ED9039ADE
:101820009A422CD9F26852F82300A8F0EBFB044648
:10183000B5F5007F00F03481B5F5207F49D0B5F5CE
:10184000407F00F0ED80F069A8F0BCFB254604461F
:101850006AE0237A0393637A0993A37ABCE799F841
:1018600001A009F102070AF1EB03C5E73A4607991F
:1018700032F8023B5BBA5B1A9BB21746CCE7059A7B
:1018800032F81300A5F09BFC0146B0696CF08EFBAA
:1018900042070446CCD580465D4655E1059A32F8AC
:1018A00013100A9A9A4210D90846A5F088FC0388BA
:1018B00003F00703052B044601D14068B5E7A7F004
:1018C0007BFF2046A8F047FBB1E73046A6F0F8F9C9
:1018D000ADE73B78069A9A420ED90137099A9A42A7
:1018E00040F28380039A9A420FD9F26852F823009B
:1018F000A8F088FB054617E03A46079932F8023B04
:101900005BBA5B1A9BB21746E8E7059A32F81300F8
:10191000A5F055FC0146B0696CF048FB10F0040FCF
:10192000804641F02B810546029B03F07F031A4657
:101930000C93562A01F25A80DFE812F0C500B40079
:10194000BC00C700CC00D30023012901850430016D
:1019500035013D0144014E0155016901C601C60131
:101960002D02D501E301E80135028D0293029302B5
:1019700093029302930239033903390339036D0447
:101980007D046C08E403FA0308040E04130418042D
:101990001E04550496079804AD04AD04AD04AD04CF
:1019A000CA04D804DC04E004E604EC04240526059B
:1019B0008005C50523062706410646064B06570641
:1019C0007906B606E606160746074B075F06650664
:1019D00069066D067106750650078607B607E707A4
:1019E000F70796070B082B085808059A32F81310CA
:1019F0000A9A9A4210D90846A5F0E1FB038803F041
:101A00000703052B054601D1406871E7A7F0D4FE16
:101A10002846A8F0A0FA6DE73046A6F051F969E72C
:101A2000119B1A1F2546119253F8044C7CE7FF2D99
:101A300012D9119BB5F5C07FA3F1040253F8044CF1
:101A400011922DD1A3F108022546119253F8084CAA
:101A50006AE700BFEEFD0C00802D1CD10AF00303E5
:101A60003A780092012B0FD0032B17D0002300935C
:101A70003B46009913F8022B42EA0122797841EAA9
:101A8000022200921F4600E00137029B5B0402D550
:101A9000009B5B4200935D465C4645E70137E7E704
:101AA0005D4641E7119B1A1F53F8040C1192A8F0F0
:101AB000DBFA08E00198A8F052FB119B1A1F53F8BB
:101AC000043C11920193B9468DE6119B1A1D1192A7
:101AD0001C60F8E7119A134643F8084B55601193C0
:101AE000F1E7119B1A1D11921C603B78069A9A42ED
:101AF00015D97C1C099A9A4228D9039A9A4216D978
:101B0000F26852F82300A8F07DFA8046119A134635
:101B1000274643F8085BC2F804801193D3E73C469C
:101B2000079A34F8023B5BBA9B1A9BB2E2E7059A2C
:101B300032F81300A5F043FB0146B0696CF036FAA9
:101B400010F0040F8046E1D05C469BE0059A32F825
:101B500013100A9A9A4210D90846A5F030FB038860
:101B600003F00703052B074601D14068CBE7A7F038
:101B700023FE3846A8F0EFF9C7E73046A6F0A0F8F4
:101B8000C3E7119B1A1D1192C3F800B09BE7119C8B
:101B9000231D11930320A8F083F90AE0119C231D53
:101BA00011930520F7E7119CF069231D1193A8F00C
:101BB00009FA206087E7119C0020231D1193A8F0EB
:101BC00079F9F6E7119D17F8010B2B1D11930130E0
:101BD000A8F070F9286076E7119D17F8010B2B1D0E
:101BE0001193C043F4E70020A6F0B5FE0023194688
:101BF00001220546A8F059FC04462846A7F0C8F87B
:101C0000119D20462B1D1193A8F0A8F9E2E7119B26
:101C100053F8040CA8F0CDF981462846A8F033F912
:101C200048B32846A8F0C2F9804601464846A8F0C5
:101C300036FD50B1037803F00703C11D022B21F0DC
:101C4000030109D04846A8F076FE41460023382219
:101C50004846A8F0E8FC014648462246A8F083FD25
:101C60002846A8F010F910B94046A7F0B1FD284663
:101C7000A8F075FA38E32846A9F0FAFA10F0040F34
:101C80008046CFD02046A8F06AFA2846A8F067FA26
:101C900018F0040410D0B38C039AF568134405EBD4
:101CA0008305119BAB4200F27587039BB28C1A44EB
:101CB000F36803EB82031193B38C002B40F0788719
:101CC0000198A8F04CFA64E20C981199A0F1100C5C
:101CD000DCF1000051F8041C2B46224640EB0C00BE
:101CE000ABF0E5FEC3E70022114610466BF052F957
:101CF00010F0040F8046C5D1119B1A1D1192186077
:101D0000E1E6119C231D1193012044E7BA46119B83
:101D10001AF8018BA3EB8803119353F8040CA8F075
:101D200048F9029012A86AF095FE12A90298A8F04C
:101D300013FD05460068A8F02EF900240746444527
:101D400006D308EB07012846A8F0EDF95746BAE696
:101D5000119B53F82400A8F071F8D0B90490E01951
:101D6000A7F0E3FB049B0146382281460298A8F0C5
:101D70005AFC119B53F82430036018460493A8F0D2
:101D800088F8049B10B11846A8F06EF94846A7F0F1
:101D90001FFD0134D3E7119B53F8042C43E901B232
:101DA000043311938FE697F80080069B434514D9BE
:101DB00007F1010A039B43451AD90720A8F070F8E0
:101DC000119CF368C4E9000853F8280004F10C03DF
:101DD0001193A8F017F9A060B8E7BA46079B3AF844
:101DE000028B98FA98F8A8EB03081FFA88F8E1E745
:101DF000059B33F81800A5F0E2F901460746B069E3
:101E0000AAF0D0FC814610B3089A39466BF04CFD1D
:101E100010F0040F80467FF435AF4846A6F0ACFFC3
:101E20003846A7F0C9FC119C4846231D1193A8F021
:101E300095F82060119C3846231D1193A8F08BF86B
:101E4000119B20601A1D1192C3F800807EE7B648EE
:101E5000A9F06EFBDCE7BAF1390F119B38D153E9D9
:101E600002452046A8F015F800284BD02046A8F0DF
:101E7000A0F880462846A7F0E8FF002838D028467A
:101E8000A8F075F8011E3DDB12A8A7F032FB0DF19A
:101E9000480949464046A8F0AFFD00283ED00378E7
:101EA00003F00703022B39D1073020F0030000684C
:101EB000A8F0A8F8804618F0040F49D0AAF1390A12
:101EC0005FFA8AFABAF15C0F3CBF5D465C46D9E620
:101ED000BAF13A0F06D11A1D119225461C6053F82B
:101EE000044CBEE71A4642F8084B5D601192B8E711
:101EF0002846A7F0C8FF28B12846A8F057F8814621
:101F00000028C6D12046A7F072FF18B92046A7F0D6
:101F100075FF50B18448A9F013FBCBE72046A8F029
:101F200048F84946AAF05EFAC4E72846A9F0A0F9A5
:101F300010F0040F8046C1D1A8F038F88146014660
:101F40002046A9F0F5FC80464846A7F041FCB2E7E0
:101F5000BAF1940F26D8BAF1380F84BF5D465C46BB
:101F6000049B580540F1958597F80090069B4B45DA
:101F700040F253850137039B4B4540F25B85F36884
:101F800053F82900A8F0EBF8F36843F82980049B84
:101F900013F4405F00F06E854046A8F033F88046A9
:101FA00000F068BD119B083311935D4644460C9BBD
:101FB0002046A3F11909A7F048FF002839D019F0ED
:101FC000010F04D0B4F1004F24D15F4640E0574BDD
:101FD0009C42FADC4FF0100819F0020F16D0029B59
:101FE000DB041AD5119B19F0040F03F104021192BE
:101FF00003BF53F8042C1A6053F8082C1C6008BF68
:1020000043E90242029B23F480530493A0445C46BC
:102010000B9FA5E76FF00F08DEE7029B9F04F5D545
:102020000198A8F021F8029B019423F40053049333
:10203000ECE72046A7F016FF0028C6D12046A9F0FD
:10204000CEF810F0040F80467FF41CAE27460446FD
:102050002046A7F093FF19F0010FCDE90E012ED114
:102060009FED2D7B19F0020F8DED0C7B13D0029BA1
:10207000D80435D5DDF844A019F0040F0AF10403A3
:1020800011931FD02046A7F09DFFCAF80000029BC5
:1020900023F4805304932046A7F0D7FEDDE90E23F6
:1020A0008246DDE90C01FEF785FC02460B46BAF1DB
:1020B000000F23D0A7F00CFF80463C46A8E79FED19
:1020C000187BCFE75AF8043CCAF800305AF8083CAD
:1020D0004AF8043C2046A7F075FF4AF8080CD6E7FA
:1020E000029B9904D7D50198A7F0BEFF2046A7F020
:1020F00069FF029B019023F40053CBE72046A7F031
:102100008DFFD9E7119B53F8048C43F8044C5C46CF
:1021100026E700BFAFF30080000000000000F03FA2
:10212000000000000000F0BFA4B30D00EFFFFF7F30
:10213000DDF84490F06959F8048CA7F043FF119B37
:1021400049F8040C1A1D11921C60E0E7BAF1460F21
:1021500000F01785A046F7E42046A7F002FF80466E
:10216000F2E4B048A9F0E4F980468BE599F05AFE14
:10217000012380F8ED30A6E496F827306BB90123EF
:1021800086F82730119B3361019BC6F804903362B7
:10219000D846404615B0BDE8F08F002386F82730BA
:1021A000119B53F8048CBAF1B20FA3F1040298BF4B
:1021B0000137119218F0040F326A01927FF462AD78
:1021C000029A12F4405F01D140467DE0029AD204A7
:1021D00003D5119343F8048C75E40198A7F0BFFF71
:1021E000CDF804806FE496F827300BB90223C7E7D7
:1021F000002386F82730119B53F8048CBAF13D0F69
:10220000A3F1040298BF0137119218F0040F326A4B
:102210000192DED036E5089A29462046ABF08BFCC9
:1022200010F0040F80467FF42DAD119B1A1D119202
:10223000C3F800801BE53B78069A9A4208D901371B
:10224000039A9A420BD9119C231D11930220A2E4F8
:1022500037F8023B079A5BBA9B1A9BB2F0E7059AE4
:10226000B16932F81300ABF0A2FC41E5119B53E9D0
:1022700002141A1F20461192A8F0B4FD48B1009B29
:1022800009EB0307119B1A1F53F8040C1192A7F0D6
:10229000EBFE20460BE40C9BA3F12E05119B53F89B
:1022A000044C1A1F20461192A8F05BFFEB0744BFB5
:1022B00080F00100C0B230B1009BAD0709EB03070D
:1022C00001D5119B6CE52046A7F049FFFFF7FBBB4A
:1022D0002046ABF00CFA10F0040F80467FF4D2AC2D
:1022E000119B1A1D11921860A0466DE72046ABF0B5
:1022F0002DFAF0E72046ABF0A4FBECE7224621469E
:102300000620ABF054FAE6E7119B1A1D1192C3F8B0
:1023100000B0E9E73B78069A9A4214D90137039A4C
:102320009A4219D9F26852F82300A7F04BFE804672
:102330004046ABF091FB440700F12984119B1A1D24
:102340001192186040E73A46079932F8023B5BBAAF
:102350005B1A9BB21746E2E7059A32F81300A4F025
:102360002EFF80460146B069AAF01CFA40B14146F2
:10237000089A6BF099FA804618F0040FD8D081E4DF
:10238000D846F9E7A046D3E729462046A7F063FDE3
:1023900058B12046A7F0EBFD80462846A7F0E7FDA0
:1023A0004044A7F0B4FD8046DAE52046A7F05AFD88
:1023B000C0B12846A7F05CFDA0B12046A7F0D9FD2A
:1023C000804628468946A7F0D9FD02460B4640467E
:1023D0004946A7F015F802460B462046A7F01EFE18
:1023E000804694E62846A7F03DFDE8B12046A7F0D8
:1023F0002CFDC8B12046A7F0BAFDFEF727FC8046A9
:1024000028468946A7F0B5FD02460B464046494698
:10241000A6F0F6FF02460B462846A7F0FFFD5D46F4
:1024200080469DE5A4B30D0029462046ABF0A7F8F1
:1024300010F0040F80463FF493AD23E42946204674
:10244000A7F009FD48B12046A7F091FD8046284637
:10245000A7F08DFDA8EB0000A3E72046A7F002FD42
:1024600090B12846A7F004FD70B12046A7F081FD89
:10247000804628468946A7F081FD02460B46404625
:102480004946A6F0C1FFA6E72846A7F0EBFCA0B19D
:102490002046A7F0DAFC80B12046A7F068FDFEF7E1
:1024A000D5FB804628468946A7F063FD02460B46C9
:1024B00040464946A6F0A8FFACE72A462146002040
:1024C000AAF0E3FFB4E729462046A7F0C4FC20B3F6
:1024D0002046A7F04CFD82462846A7F048FD42F66C
:1024E00041530AEB030145F68222914207D8034487
:1024F000934204D800FB0AF0A7F0DCFC53E7FEF798
:10250000A5FB804689465046FEF7A0FB42464B4657
:10251000A6F07EFFA7F0DCFC45E72046A7F0A2FC72
:1025200090B12846A7F0A4FC70B12046A7F021FD89
:10253000804628468946A7F021FD02460B464046C4
:102540004946A6F065FF46E72846A7F08BFCA0B1F8
:102550002046A7F07AFC80B12046A7F008FDFEF7E0
:1025600075FB804628468946A7F003FD02460B46C8
:1025700040464946A6F04CFF4CE72A46214601203A
:102580009EE72A46214602209AE729462046A7F0E0
:1025900062FC80B12846A7F0EAFC804658B120468C
:1025A000A7F0E5FC034690FBF8F008FB103000288C
:1025B000A2D1002BA0DA2A462146032080E7294633
:1025C0002046ABF0D1F92BE629462046ABF0CEF9F8
:1025D00026E629462046A8F005FCA7F065FC119BDD
:1025E0001A1D11921860FFF742BB29462046A8F039
:1025F000F9FB80F00100C0B2EFE72A462146012036
:10260000ABF0D5F814E72A4621460220F8E72A461F
:1026100021460020F4E72A4621460320F0E72A4617
:1026200021460420ECE72A4621460520E8E7294612
:102630002046A7F010FC70B1DDF84480AC4208F1F0
:1026400004031193ACBF00200120A7F02DFCC8F8B3
:102650000000FFF738BA2046A7F00AFCF8B1284678
:10266000A7F006FCD8B12046A7F088FC8046284693
:102670008946A7F083FCDDF844A00B460AF104016B
:102680000246119140464946FEF7BCFD003818BF8E
:102690000120A7F009FCCAF80000FFF7E8BA2946B4
:1026A0002046ABF06DF9BBE529462046A7F0D3FBE9
:1026B00048B1DDF84480AC4208F104031193D4BF63
:1026C00000200120C1E72046A7F0D2FBB8B1284680
:1026D000A7F0CEFB98B12046A7F050FC80462846D4
:1026E0008946A7F04BFCDDF844A00B460AF1040133
:1026F0000246119140464946FEF7A2FDC6E729462B
:102700002046ABF04EF98BE529462046A7F0A3FB07
:1027100048B1DDF84480AC4208F104031193CCBF0A
:102720000020012091E72046A7F0A2FBB8B128467F
:10273000A7F09EFB98B12046A7F020FC80462846D3
:102740008946A7F01BFCDDF844A00B460AF1040102
:102750000246119140464946FEF75EFD96E729463E
:102760002046ABF02FF95BE529462046A7F073FB26
:1027700048B1DDF84480AC4208F104031193B4BFC2
:102780000020012061E72046A7F072FBB8B128467F
:10279000A7F06EFB98B12046A7F0F0FB80462846D4
:1027A0008946A7F0EBFBDDF844A00B460AF10401D3
:1027B0000246119140464946FEF738FD66E7294634
:1027C0002046ABF014F92BE5294620466EF028F898
:1027D00026E5294620466EF007F821E5119B53F8BF
:1027E00004AC1A1FB3681192009AA9EB03031A44B0
:1027F000504600926AF0C6FD80465046A7F034FC71
:1028000018F0040F7FF43EAA4046A7F0D2FB012245
:1028100001460446B069A7F077FE05462046A6F0BB
:10282000B7FAB38C119CB0690233B38404F1080386
:102830001193009B1B0143F005036360A7F08EFB1F
:102840002060B561FFF73FB9119B53F8045CCDF8E8
:1028500048B01A1F12A928461192ABF0BCF90446E1
:102860002846A7F001FC24B9009B09EB0307FFF7FA
:102870002AB9B368009AA9EB03031A44B38C0092F7
:102880000333B384119B03F10C021192009A1201DD
:1028900042F006029A60A2885A60129A1A60204694
:1028A000A6F0C3F9FFF70FB9039AB38CF468134489
:1028B00004EB830454F8080CA4F081FCC388056879
:1028C00044F8083CA6F0B5F9119B1A1D11921D6041
:1028D000FFF7F9B8A4F073FC04460068A7F066FBA4
:1028E000119B054653F80C0CA7F063FB2946A9F091
:1028F000FFFB0028B8D1119BE28843F8082C28463A
:10290000A6F066FF2046A6F094F9119B53F8080C38
:102910000028DFD153F80C0CA7F0A6FBB38C033BC7
:10292000B384119B0C3BFFF73CBAB368009AA9EB48
:1029300003031A44B38C0092119A0233B38402F158
:1029400008031193009B1B0143F003035360FFF73F
:10295000BAB8B368009AA9EB03031A44119B00921A
:1029600053F8043C03F00F03042B08D1B069A6F020
:102970000FFA119B53F8080CA7F01BFBB061009AEB
:10298000119B120143F8042C009A43F8082CFFF71E
:102990009AB8119951F8042C12F00F0208D0013A9C
:1029A000012A1BD93046ABF057F91190FFF78BB8CD
:1029B000B38C51F8084D1191023BB38411A9234601
:1029C0003046ABF087F928B1119B776843F8084C83
:1029D000FFF779B8B3681F19FFF775B8B38C51F8D2
:1029E000088D1191023BB384FFF74CB9B368A9EB92
:1029F0000309009B00224B4411A930460093ABF021
:102A000069F910B17768119BBEE7B368009A9F1807
:102A1000FFF759B8A046FFF77ABB3B46079A33F851
:102A2000029B99FA99F9A9EB02091FFA89F91F4645
:102A3000FFF7A1BA059B33F81900A4F0C0FB81464B
:102A40000146B069A9F0AEFE4946089A43466AF0CD
:102A500033FF10F0040F814605D04046A7F004FB79
:102A6000C846FFF70FB9049B13F4405F02D14046FC
:102A7000A7F075FB049BDA043FF5D7AB049B9B04DE
:102A80007FF5F5A80198A7F06AFBCDF80480FFF761
:102A9000EEB8049B1905EDD5119B53F8042C029256
:102AA0000720A3F1080253F808AC1192A7F0F8F937
:102AB000504510D1F368029A53F82200A7F04FFB5B
:102AC000F368029A43F82280049B13F4405F3FF4BA
:102AD000CEA8FFF761BA5046A7F0DBF9C0B950465F
:102AE0006AF050FC81465046A7F0BEFA19F0040F78
:102AF0000FD00298A7F0B8FA19F0040FADD1049BDB
:102B000013F4405FB6D14046A7F029FBFFF7AFB8FA
:102B1000D1460298A7F0B7F970B90298A8F0A8FBBF
:102B200082460298A7F01BFB1AF0040F06D0484615
:102B3000A7F09AFAD146DFE7DDF808A04846A7F0EB
:102B400038FA02905046A7F031FA0B900298A7F09D
:102B5000F2FC0B99089B424660B90298A9F0AFFCC1
:102B600002904846A7F080FA5046A7F07DFA029BF3
:102B70009946C1E702986AF0C5FEF1E75D46FFF7A6
:102B800081B8DDF80480CDF804B0FEF7DDBF44461F
:102B9000FFF7EABA0720A7F083F92F68874203D12D
:102BA00004350435FFF77DB83846A7F05DFAF8E73D
:102BB0009CB9039A1344F26802EB830211922346F4
:102BC000022211A93046ABF085F800283FD0119BB6
:102BD000776843F8088CFEF776BF0023012211A91D
:102BE0003046ABF077F890B3119C776854F8043C0A
:102BF00003F00F03042B26D1231D40461193A7F0A9
:102C0000DEF920607D78069B9D4205D3B7F8015020
:102C1000079B6DBAADB2ED1AB069A7F062FC059BD7
:102C2000044633F81500A4F0CAFA002201462046F3
:102C3000A8F0F5FEB069119DA7F090F945F80C0CCD
:102C4000B461FEF740BF44F8088CFEF73CBF019822
:102C5000A7F00AFAFFF79DBA2DE9F04F4FF00008F0
:102C600099B04FF00009CDE90201CDE90C01CDE9A1
:102C70000E89CDE90823DFF8A4B0274F0123019383
:102C80004FF0000A0026DDE90C4532463B4620465F
:102C90002946FEF7D5FA60BB9DED0E7B32463B46DA
:102CA000204629468DED047BFEF7A2FAC8B9DDE97E
:102CB0000E674FF00008194B002220462946FEF708
:102CC000A1FA002840F08081144B002220462946BA
:102CD000FEF78EFA20BBB8F1000F33D0CDE90C45DA
:102CE0002EE0DDE9040142464B46FEF79FFA00283C
:102CF000DDD0019BB3F59A7FD9D0019B0CA801339D
:102D0000019369F025FE5046594632463B46FEF790
:102D100031F982468B46B6E7000024400000F03FC0
:102D20000022002330463946FEF76CFA002840F0B6
:102D30004B81B8F1000F05D09FED997B8DED0C7B99
:102D4000CDE90E67DDE90E67994B0022DDE902014E
:102D5000CDE91045CDE9126774F02EFC954B4FF08C
:102D6000FF3280468946FEF775FA38B9914B4FF02D
:102D7000FF3240464946FEF74FFAC0B18C4B002265
:102D8000DDE9020174F018FCDDE90223FDF710FE15
:102D900052465B46FDF7C4FF83A3D3E90023FEF749
:102DA000E9F832463B46FDF705FECDE91201824BBC
:102DB0000022DDE9020174F0FFFBDDE90223FDF7EB
:102DC000F7FD52465B46FDF7ABFF77A3D3E900233F
:102DD000FEF7D0F832463B46FDF7ECFDDDE91289FF
:102DE00006460F4642464B4620462946FDF7E2FD81
:102DF00002460B4620462946CDE91023FDF7D8FDB3
:102E000042464B46FDF7D6FD3246CDE912013B4620
:102E100020462946FDF7CEFD02460B4620462946B0
:102E2000CDE91423FDF7C4FD32463B46FDF7C2FD54
:102E3000CDE91601614D00244FF000084FF0000964
:102E4000DDE910AB22462B4650465946FEF7F8F90D
:102E5000002840F0138122462B4650465946DDE9B2
:102E60001267FEF7C5F940B142464B463046394637
:102E7000FEF7DCF9002840F001819DED167BDDE9CD
:102E800014898DED027B00244D4B0022504659469B
:102E9000FEF7B8F9002840F0FB80494B002250466D
:102EA0005946FEF7A5F9002840F083814CB1CDE9E1
:102EB00010AB9DED027BCDE91267CDE914898DED54
:102EC000167B9DED127B8DED027B9DED167BDDE982
:102ED0001489DDE910678DED047BDDF820B0002555
:102EE0000022002330463946FEF782F930B1DDE991
:102EF000020100220023FEF77BF988BB39463046E9
:102F0000FEF7E6F95FFA80FA5046FDF79FFE32467B
:102F10003B46FEF76DF950B1DDE9020100220023C6
:102F2000FEF770F918B10AF1FF3A5FFA8AFA4946DA
:102F30004046FEF7CDF9C4B22046FDF787FE424673
:102F40004B46FEF755F940B1DDE9040100220023AC
:102F5000FEF758F908B1013CE4B2A24500F03A810D
:102F60000DB1CDE91489DDE9142330463946FDF76A
:102F700021FD144B0022FDF7D3FE124B0022FDF77A
:102F800019FDFEF7A5F900F130035846019A00F843
:102F9000013B099B1A60089BC01A19B0BDE8F08F6D
:102FA000000000000000F03F4DF96B0D00000040F4
:102FB0000000F07FFFFFEF7F0000F0FF00002440E3
:102FC0000000F03F0000E03F019B6FF499729342D4
:102FD0003FF481AE019B013B01930022D24B20467E
:102FE0002946FDF79DFED14B8046894600222046AA
:102FF0002946FDF795FE02460B4640464946FDF739
:10300000D7FCC94BCDE90401002230463946FDF713
:1030100087FE224606460F462B4620462946FDF7E8
:10302000C9FC02460B46DDE90401FDF7C1FC02467E
:103030000B4630463946FDF7BBFC06460F460246B6
:103040000B4640464946FDF7B5FC02460B46044692
:103050000D4640464946FDF7ABFC32463B46FDF780
:10306000A9FCB14B06460F46504659460022FDF7D3
:1030700057FE4FF0010882468B461CE6019B10A8C4
:103080000133019369F064FC14A869F061FCD7E690
:10309000019B013B01930022A34B50465946FDF78B
:1030A0003FFEA24B04460D46002250465946FDF70E
:1030B00037FE02460B4620462946FDF779FC9A4B1F
:1030C000CDE90401002230463946FDF729FE52467B
:1030D00006460F465B4650465946FDF76BFC0246D6
:1030E0000B46DDE90401FDF763FC02460B46304662
:1030F0003946FDF75DFC06460F4602460B46204664
:103100002946FDF757FC02460B4682468B46204671
:103110002946FDF74DFC32463B46FDF74BFC824B02
:10312000002206460F4640464946FDF7F9FD7F4B13
:1031300004460D46002240464946FDF7F1FD024691
:103140000B4620462946FDF733FC774BCDE90401B9
:103150000022DDE90201FDF7E3FD4246CDE902016F
:103160004B4640464946FDF725FC02460B46DDE945
:103170000401FDF71DFC02460B46DDE90201FDF7E7
:1031800017FCCDE9020102460B4620462946FDF711
:1031900011FC02460B468046894620462946FDF72B
:1031A00007FCDDE90223FDF705FC0124CDE902015E
:1031B0006AE60022002330463946FEF723F800284D
:1031C0007FF466AF002C3FF47CAE9FED557B8DED18
:1031D000107B6EE60AF130030BF8013B5046FDF719
:1031E00035FD02460B4630463946FDF7E1FB4E4BB6
:1031F000002204460D46FDF793FD4C4BCDE9060138
:10320000002220462946FDF78BFD02460B46DDE9EC
:103210000601FDF7CDFB444BCDE90A010022DDE9B3
:103220000201FDF77DFD224606460F462B4620464D
:103230002946FDF7BFFB02460B46DDE90A01FDF713
:10324000B7FB02460B4630463946FDF7B1FB044654
:103250000D4602460B46DDE90601FDF7ABFB0246D3
:103260000B4606460F46DDE90601FDF7A1FB2246A7
:103270002B46FDF79FFBCDE902015046FDF7E6FC2A
:1032800002460B4640464946FDF792FB264B00227C
:1032900004460D46FDF744FD244BCDE9060100220E
:1032A00020462946FDF73CFD02460B46DDE90601B6
:1032B000FDF77EFB1C4B804689460022DDE90401B8
:1032C000FDF72EFD2246CDE904012B462046294676
:1032D000FDF770FB02460B4640464946FDF768FB8A
:1032E00002460B46DDE90401FDF762FB0D4602468E
:1032F0000B460446DDE90601FDF75CFB02460B4682
:1033000080468946DDE90601FDF752FB2B46224641
:10331000FDF750FB0125CDE90401E1E5AFF30080A5
:10332000000000000000F03F0000244000002040AA
:103330002DE9F04F9BB022380E4693460693142891
:1033400001F2E283DFE810F0150049004F009F0012
:10335000AD00B3003A01400146015D01D102CA044B
:10336000A8056F0659070808B9085A09270AE10A8B
:10337000E00B08466AF006F84107059020D4A6F055
:1033800018FE04467220A6F04CFC01460746204673
:10339000A9F028F810F0040504460AD1A8F0FDF8B9
:1033A00090B93046A4F048FD05462046A6F05CFEE4
:1033B0002C463846A6F00CFA0598A6F055FE059462
:1033C00005981BB0BDE8F08F2046A6F0F2FD2B4615
:1033D0002A463146A8F0B5F9E6E708461BB0BDE835
:1033E000F04FAAF0E5BC0020A6F05AFD0546304695
:1033F00069F0C8FF10F004040590E1D1224621468F
:10340000204669F0C7FD0646A6F0D3FD059A149440
:1034100014A90746A4F0C8FE10F00408044621D001
:103420002046A6F0DDFC50B31498FDF7FFFB0246E2
:103430000B463846AAF062FD45070446BCD4A6F008
:1034400013FE3446B8E75BF8282014A93846A4F0E8
:10345000ABFE4207034602D4A6F006FE2B4608F157
:1034600001081D46069B434504D02846A6F0B8FC3B
:103470000028E8D12046A6F0F7FD2C46D0E73046DC
:10348000A6F0F2FD98E7069B33B1116830461BB0F9
:10349000BDE8F04FAAF076BD0420A6F001FD01467C
:1034A000F4E708461BB0BDE8F04FAAF026BE0020A6
:1034B000A6F0F6FC0446304669F064FF410705902B
:1034C0003FF57EAFA6F075FD804669F0CBFA014668
:1034D00081464046A8F086FF10F0040A054623D135
:1034E00069F08AFA064628460F46A6F0C1FCF0B1FC
:1034F0002846A6F043FD06460F462046A6F070FC7F
:1035000070B13946304669F0E9F9FDF78FFBCDE936
:1035100008012046A6F064FC069B53453AD0B8B992
:103520002846A6F0A1FD2546484600F019BC2846CD
:10353000A7F055FE420709D40890A6F01FFD089B8E
:10354000064618460F46A6F08FFDD6E70446D4E798
:10355000DDE908015BF82A60A6F01CF83246014656
:10356000074601234046A8F0AAFF4107064602D4B9
:10357000A6F07AFD26463846A6F02AF9DDE90801CC
:103580009F4B0022FDF716FA0AF1010ACDE9080166
:103590003446BEE70028C3D0DDE908234046AAF040
:1035A000ADFC42070446BBD4DDE90801A6F090FC5F
:1035B00006462046A6F058FD3446B1E708461BB043
:1035C000BDE8F04FAAF02CBE08461BB0BDE8F04F96
:1035D000AAF0F5BE069B3BB1012B146809D104206B
:1035E000A6F05EFC024605E00420A6F059FC044665
:1035F000F5E75268214630461BB0BDE8F04FAAF00F
:10360000BBBF069B7BB1136806930698A6F0EFFB41
:1036100070B90698A7F0C1FF50B97A481BB0BDE851
:10362000F04FA7F08DBF0420A6F03AFC0690ECE71F
:103630000020A6F035FC0546304669F0A3FE03469F
:103640005B0705903FF5BCAEA6F0B3FC089069F0AF
:1036500009FA0D9001460898A8F0C4FE10F0040382
:1036600083460B9340F0138169F0C6F980465846B3
:103670008946A6F0FDFB00283ED05846A6F07EFC09
:10368000804689462C462046A6F0AAFB002800F07A
:10369000FA804946404669F021F900230C901A4609
:1036A000012108986AF02AFA0A90014614A8A6F0A7
:1036B00053FE002714A8A6F05AFE18B12046A6F023
:1036C0008FFB38BBBB0018460E93A3F0D1FE0A99BE
:1036D000074614A8A6F040FE4FF0000914A8A6F073
:1036E00046FE002844D02046A6F07AFBF8B92546CD
:1036F0004FF000082C469FE05846A7F070FD4707A2
:103700000446C0D4A6F03AFC804620468946A6F07E
:10371000ABFCB7E7179B1868A6F048FC13A969F043
:10372000ABF9139B0C9A9A4288BF0137C2E7179BEB
:103730001868A6F03BFC13A9804669F09DF9139B1D
:103740000C9A9A4214D941460898A8F04BFE10F002
:10375000040F80460AD1A6F035FC47F82900404600
:10376000A6F082FC09F1010AD146A0464446B5E71D
:10377000B9F1010FBBD92046A6F032FB0028B6D024
:1037800009F1FF3808EBD87A4FEA6A0ABAF1000F5C
:1037900003DB2846A6F024FB60B9B8F1000F03DD77
:1037A0002846A6F01DFBA8B96807A1D42846A6F0B4
:1037B0005BFC9CE7069B514642463846AAF0D5FF83
:1037C0004107034602D4A6F04FFC2B460AF1FF3A0C
:1037D0001D46DBE757F828203B683A6047F8283059
:1037E00008F1FF38069B424600213846AAF0BDFF8B
:1037F0004207034602D4A6F037FC2B461D46CCE711
:103800000000F03FA4B30D004046A5F08EFE57F82F
:1038100028200146054601230898A8F050FE10F024
:10382000040F824602D1A6F01FFCA2462846A5F04E
:10383000CFFF08F101085446C14504D02046A6F048
:10384000CFFA0028E0D10B9B994529D11FB10E99E1
:103850003846A3F013FE0A9914A8A6F07DFD14A81B
:10386000A6F085FD18B12046A6F0BAFA08BB0A9862
:103870000121A6F0DEFC2046A6F0B2FA18B13046CF
:10388000A6F0A0FB04465846A6F0EEFBA3460D9812
:10389000A5F09EFF0598A6F0E7FBCDF814B08FE5E4
:1038A0000B9B57F82300A6F0DFFB0B9B01330B9318
:1038B000C9E7179B1868A6F079FB13A9054669F0BC
:1038C000DBF8139B994502D80C9A9A4202D82346FA
:1038D0001C46C4E7294608980122A8F0A4FD410728
:1038E0000346F5D4A6F0C0FBF1E70020A6F0D8FA15
:1038F0000746304669F046FD420705903FF560AD4A
:10390000A6F057FB814669F0ADF80D900146484698
:10391000A8F068FD10F0040A0A9040F0BE8169F03A
:103920006BF804460A980D46A6F0A2FA002800F0AB
:1039300093800A98A6F022FB04460D463846A6F06E
:103940004FFA002800F0A5812946204668F0C6FFFE
:10395000002211468046104669F01CFB0E90A6F02E
:1039600028FB069B0C90002B00F0D98069F044F8EE
:10397000DBF80060044630460D46A6F079FA0028D0
:103980007AD03046A6F0FAFA04460D463846A6F03C
:1039900027FA002800F0C680424620462946A4F0B7
:1039A00095FA069B0890012B76D1A8EB000401261E
:1039B0003846A6F015FAA24502D0002840F0B5809E
:1039C000069B022B38BF0223023BA8EB040A0B9391
:1039D00053440F930B9B9C4200F0118100F219811C
:1039E0000AF1FF353846A6F0FBF9089A6B1C9A429B
:1039F00080F00581002800F002816019A5F095FD96
:103A00000B9B8046E818A5F090FD41460C90484677
:103A1000A8F0BCFC4307064615D4A6F00BFA002814
:103A200000F00F810C99012332464846A8F047FD6B
:103A300010F0040F824602D1A6F016FBBA463046BB
:103A4000A6F012FB56460C98A5F0C2FE4046A5F023
:103A5000BFFE013D3746C5E70A98A7F0C0FB430704
:103A6000064607D4A6F08AFA044630460D46A6F06C
:103A7000FBFA63E7074661E73046A7F0B0FB410772
:103A8000064607D4A6F07AFA044630460D46A6F05C
:103A9000EBFA7BE7074679E768F0AEFFDBF80460F6
:103AA000044630460D46A6F0E3F950B13046A6F084
:103AB00065FA04460D463846A6F092F988B9002406
:103AC00075E73046A7F08BFB4207064607D4A6F001
:103AD00055FA044630460D46A6F0C6FAEBE707460F
:103AE000E9E720462946A5F0B4FB0028E7D12046A7
:103AF0002946A5F0BEFB0028E1D120462946A5F0C5
:103B0000C3FB50B92046294668F0E8FE089BA8EBA5
:103B10000304844228BF044649E74046F6E7069C72
:103B2000089444E70446089041E7089B03EB0A0029
:103B3000A5F0FBFC0B9001464846A8F027FC10F0CE
:103B4000040305460F9318D1A6F074F988B15046C6
:103B5000A5F0EBFC0F9B00960146CDE901630F90A9
:103B600001230C982A46A4F0B7FA0F990846A5F04D
:103B70002FFE2846A6F078FA3D460B98A5F028FEC1
:103B80000AF1010A2F4613E7A019A5F0CEFC0B9B02
:103B90001090F018A5F0C9FC10990C904846A8F0B8
:103BA000F5FB4307054614D4A6F044F958B30C9925
:103BB00001232A464846A8F082FC4107034602D466
:103BC000A6F052FA3B4628461193A6F04DFA119BF7
:103BD0001D460C98A5F0FCFD1098A5F0F9FD0136E6
:103BE0002F463846A6F0FCF8B24501D90028CBD1C3
:103BF0003846A6F0F5F80F9B434500D258B9089B0C
:103C000002259C1E3AE00C9901224846A8F00BFCC4
:103C1000D3E7089EE5E708F1FF384046A5F085FCAC
:103C20000122014604464846A8F0FDFB420705462E
:103C300002D4A6F019FA3D462046A5F0C9FD2F464C
:103C4000D6E70C9901224846A8F0EDFBF0E6601992
:103C5000A5F06BFC5BF8252001460646012348468B
:103C6000A8F02DFC10F0040F804602D1A6F0FCF95C
:103C7000B8463046A5F0ACFD013547463846A6F0BB
:103C8000AFF8069BAB4212D90028E0D10E98A6F0FF
:103C9000EBF90A98A6F0E8F90A970D98A5F098FDB7
:103CA0000598A6F0E1F90A9B0593FFF789BB002868
:103CB000ECD00F98FCF7BAFF02460B464846AAF034
:103CC0001DF9460708D4A6F0CFF93846A6F088F8C3
:103CD0000028DBD00E9FDCE70746F6E70020A6F0C1
:103CE000DFF80446304669F04DFB450705903FF587
:103CF00067ABA6F05EF9804668F0B4FE0890014616
:103D00004046A8F06FFB0546680728D468F074FEAB
:103D1000064628460F46A6F0ABF848B32846A6F05C
:103D20002DF906460F462046A6F05AF898B13046BF
:103D3000394668F0D3FD814606462046A6F050F885
:103D40000EB130BB06462046A6F04AF8069BB342A9
:103D50007DD0002863D12846A6F086F9254608982C
:103D6000A5F036FD0598A6F07FF90595FFF728BB6D
:103D70002846A7F034FA10F0040F814607D1A6F0C8
:103D8000FDF8064648460F46A6F06EF9CBE7044616
:103D9000C9E706F1FF3A5046A5F0C7FB0A90304646
:103DA000FCF744FF064606980F46FCF73FFF024625
:103DB0000B4630463946FCF7FDFDC54B0022FCF7AB
:103DC000F7FDA5F0E7FB0A9906464046A8F0DEFAA3
:103DD0004107074614D4A6F02DF8D0B101233A4686
:103DE00031464046A8F06BFB4207034602D4A6F0DA
:103DF0003BF9234638460B93A6F036F90B9B1F463A
:103E00003046A5F0E5FC0A98A5F0E2FC56463C4693
:103E100093E7012231464046A8F005FBE4E730462F
:103E2000A5F083FB5BF826200146074601234046A8
:103E3000A8F045FB10F0040F824602D1A6F014F959
:103E4000A2463846A5F0C4FC013654467BE700285C
:103E500081D04846FCF7EAFE064606980F46FCF776
:103E6000E5FE02460B4630463946FCF7A3FD024606
:103E700006460B4640460F46AAF040F80446600747
:103E80003FF569AF30463946A6F022F8064620468F
:103E9000A6F0EAF834465EE7069B43B1012BD2F860
:103EA00000A009D10420A5F0FBFF804606E0042015
:103EB000A5F0F6FF8246F5E7D2F804800020A5F0D1
:103EC000EFFF0446304669F05DFA410705903FF583
:103ED00077AAA6F06EF8089068F0C4FD0146814606
:103EE0000898A8F07FFA420705463FF51DAB68F039
:103EF00083FD064628460F46A5F0BAFFB8B128460E
:103F0000A6F03CF806460F462046A5F069FF0028BB
:103F10003FF406AB3046394668F0E0FC8346B8B95A
:103F20004FF0FF30A5F0C6FF0446FFF7F9BA284668
:103F3000A7F055F910F0040F834607D1A6F01EF83C
:103F4000064658460F46A6F08FF8DDE70446DBE745
:103F500068F052FD064640460F46A5F089FFF8B1CD
:103F60004046A6F00BF806460F462046A5F038FF5F
:103F700000283FF4D5AA30465A463946A3F0A6FF9A
:103F80009FED517B83458DED067B06463AD8204652
:103F9000A5F026FF00283FF4C3AADDE906017BE077
:103FA0004046A7F01CF910F0040F804607D1A5F099
:103FB000E5FF064640460F46A6F056F8D5E704460C
:103FC000D3E73046A5F0B1FA014680460898A8F03C
:103FD000DDF94307074610D4A5F02CFF48B1394658
:103FE0005046A6F0FFFE20B13046FCF71FFECDE99B
:103FF00006013846A6F038F827464046A5F0E8FB0B
:1040000001363C462046A5F0EBFEB3450746BED040
:10401000DDE9060100220023FDF7F4F80028B6D000
:10402000002FCED1B3E70020A5F03AFF069B04464F
:10403000ABB3DBF800300A93304669F0A3F94107CF
:1040400005903FF5BDA9A5F0B4FF089068F00AFD02
:10405000014681460898A8F0C5F9420705463FF594
:1040600063AA68F0C9FC064628460F46A5F000FF83
:10407000D0B12846A5F082FF06460F462046A5F09F
:10408000AFFE00283FF44CAA3046394668F026FCC3
:10409000804618BB0F490020A5F01AFF44E7042012
:1040A000A5F0FEFE0A90C7E72846A7F098F810F0A2
:1040B000040F824610D1A5F061FF064650460F4618
:1040C000A5F0D2FFDAE700BF000000000000F0BF5B
:1040D0000000F03F0000F0BF0446CFE7069B012B35
:1040E00000F1FF3A25D968F087FCDBF804B00646FA
:1040F00058460F46A5F0BCFE00B35846A5F03EFF5B
:1041000006460F462046A5F06BFE90B13046394674
:10411000A5F09FF8002865D130463946A5F0B4F8DF
:10412000E8B130463946A5F0A4F8002818BF4FF092
:10413000FF3A9FEDBB7B8DED067B42E05846A7F032
:104140004EF810F0040F834607D1A5F017FF06467E
:1041500058460F46A5F088FFD4E70446D2E730461C
:104160003946A4F0A6FF002803DB824528BF82461B
:10417000DFE74342984538D300EB080AD9E75046B9
:10418000A5F0D3F9014607460898A8F0FFF84307C1
:10419000064610D4A5F04EFE48B10A983146A6F066
:1041A00021FE20B15046FCF741FDCDE90601304625
:1041B000A5F05AFF26463846A5F00AFB0AF1FF3A59
:1041C00034462046A5F00CFED045064610D9DDE960
:1041D000060100220023FDF715F848B1002ECED1CC
:1041E000FFF79EB94FF0000AA3E74FF0FF3AA0E7B0
:1041F000002E7FF4D2AEFFF793B9069B43B1012B9B
:10420000D2F8009009D10420A5F04AFE834606E0CA
:104210000420A5F045FE8146F5E7D2F804B0002061
:10422000A5F03EFE0446304669F0ACF84107059023
:104230003FF5C6A8A5F0BDFE069068F013FC014648
:1042400082460698A8F0CEF810F0040805464BD137
:1042500068F0D2FB064628460F46A5F009FEA8B135
:104260002846A5F08BFE06460F462046A5F0B8FD71
:10427000B0B33046394668F031FB08904846A7F0A5
:104280008CF9A0B96848A7F05BF928E02846A6F0A9
:10429000A6FF420709D40890A5F070FE089B0646C9
:1042A00018460F46A5F0E0FEDFE70446DDE7484686
:1042B00069F068F80A90A5F07CFE0B90089B4345D6
:1042C00003D02046A5F08CFD80B90A98A5F0CCFE5D
:1042D0002046A5F085FD18B10320A5F0E1FD0446B8
:1042E0002846A5F0C1FE2546504639E54046A5F0D2
:1042F0001CF9014607460698A8F048F84307064609
:1043000023D4A5F097FDE0B14046A5F013FE059B30
:104310001693CDE9146003230B9814AA5946A7F00D
:1043200010FA10F0040F81460AD1A6F01AFF18B94E
:104330000220A5F0B5FD04464846A5F095FEA1462D
:104340004C463046A5F090FE26463846A5F040FA89
:1043500008F101083446B1E7069B43B1012BD2F8BE
:10436000009009D10420A5F09BFD834606E00420BF
:10437000A5F096FD8146F5E7D2F804B00020A5F03F
:104380008FFD0446304668F0FDFF410705903FF57C
:1043900017A8A5F00EFE069068F064FB0146824661
:1043A0000698A8F01FF810F0040805469CD168F0A4
:1043B00023FB064628460F46A5F05AFD002835D0B7
:1043C0002846A5F0DBFD06460F462046A5F008FD71
:1043D000002885D03046394668F080FA0890484673
:1043E000A7F0DBF800283FF44DAF484668F0CAFF5D
:1043F0000A90A5F0DEFD0B90089B434503D02046B4
:10440000A5F0EEFC18BB0A98A5F02EFE2046A5F0FC
:10441000E7FC00283FF464AF02205EE7AFF30080C2
:10442000000000000000F0BFA4B30D002846A6F075
:10443000D6FE420709D40890A5F0A0FD089B0646C9
:1044400018460F46A5F010FEBFE70446BDE74046FC
:10445000A5F06BF8014607460698A7F097FF4307BB
:10446000064623D4A5F0E6FCE0B14046A5F062FD87
:10447000059B1693CDE9146003230B9814AA5946A3
:10448000A7F05FF910F0040F81460AD1A6F069FE8B
:1044900018B10320A5F004FD04464846A5F0E4FD4C
:1044A000A1464C463046A5F0DFFD26463846A5F02D
:1044B0008FF908F1010834469EE7069B43B1012BB2
:1044C000D2F8009009D10420A5F0EAFC834606E06A
:1044D0000420A5F0E5FC8146F5E7D2F804B0002001
:1044E000A5F0DEFC0446304668F04CFF410705901D
:1044F0003EF566AFA5F05DFD069068F0B3FA0146A3
:1045000082460698A7F06EFF10F0040805467FF477
:10451000EBAE68F071FA064628460F46A5F0A8FCF7
:1045200038B32846A5F02AFD06460F462046A5F0DA
:1045300057FC00283FF4D4AE3046394668F0CEF937
:1045400008904846A7F029F800283FF49BAE48465B
:1045500068F018FF8146A5F02CFD0A902046A5F0D2
:104560003FFC089B434542D0A0B94846A5F07CFDDE
:10457000B6E62846A6F033FE420709D40890A5F017
:10458000FDFC089B064618460F46A5F06DFDCDE7DD
:104590000446CBE74046A4F0C8FF0146074606980C
:1045A000A7F0F4FE410706461AD4A5F043FC98B1E3
:1045B0004046A5F0BFFC059B1693CDE9146003238C
:1045C00014AA0A985946A7F0BCF84207034602D439
:1045D000A5F04AFD23461C463046A5F045FD26467B
:1045E0003846A5F0F5F808F101083446B6E700288A
:1045F000BBD00420A5F054FC0446B6E7069B3BB1B3
:10460000012B156809D10420A5F04AFC069006E0AC
:104610000420A5F045FC0546F5E753680693002005
:10462000A5F03EFC0446304668F0ACFE410705901C
:104630003EF5C6AEA5F0BDFC089068F013FA0A90EE
:1046400001460898A7F0CEFE10F00409804640F01D
:10465000988068F0D1F9064640460F46A5F008FC60
:10466000C0B14046A5F08AFC06460F462046A5F09C
:10467000B7FB002800F081803046394668F02EF9FB
:104680000B902846A6F089FFA8B9AA48A6F058FFC3
:10469000044672E04046A6F0A2FD10F0040F8246E8
:1046A00007D1A5F06BFC064650460F46A5F0DCFC92
:1046B000DCE70446DAE72846A5F07BFC00220C90F4
:1046C0001146104668F066FC8346A5F072FC01278F
:1046D00082462046A5F084FB0B9B4B453DD018B984
:1046E0005846A5F0C1FC48E04846A4F01EFF01462C
:1046F00006460898A7F04AFE4207054626D4A5F0CC
:1047000099FBF8B14846A5F015FC059B1693CDE939
:104710001450032314AA06990C98A7F012F810F06D
:10472000040302460DD1CDE901730D9001233146FA
:1047300000975046A3F0D0FC0D9A1046A5F094FCCB
:10474000224614462846A5F08FFC25463046A5F0A3
:104750003FF809F101092C46BBE70028C0D00B98AF
:10476000FCF764FA02460B465046A9F0C7FB430724
:10477000044602D4A5F078FC5C464046A5F074FCE3
:10478000A0460A98A5F024F80598A5F06DFCCDF890
:104790001480FEF715BE069B3BB1012B156809D1AD
:1047A0000420A5F07DFB069006E00420A5F078FB30
:1047B0000546F5E7536806930020A5F071FB044613
:1047C000304668F0DFFD470705903EF5F9ADA5F0EE
:1047D000F0FB089068F046F90A9001460898A7F0A7
:1047E00001FE10F004098046CBD168F005F90646B9
:1047F00040460F46A5F03CFB002871D04046A5F08E
:10480000BDFB06460F462046A5F0EAFA0028B4D0C4
:104810003046394668F062F80B902846A6F0BDFE97
:1048200000283FF432AF00221146104668F0B2FB78
:104830008346A5F0BEFB0C902846A5F0BAFB0027E6
:104840000D902046A5F0CCFA0B9BBB4259D0002816
:104850003FF446AF3846A4F068FE01468246089809
:10486000A7F094FD4607054634D4A5F0E3FA68B3F3
:104870003846A5F05FFB059B1693CDE91450032342
:1048800006990D9814AAA6F05CFF10F004030646E2
:104890000E931AD1A6F065FC98B14846A4F045FEE7
:1048A0000E9B029301230146CDE900332A460E9068
:1048B0000C98A3F011FC0E990846A4F089FF09F1A9
:1048C00001093046A5F0D0FB264634462846A5F01F
:1048D000CBFB25465046A4F07BFF01372C46B0E7C2
:1048E0004046A6F07CFC10F0040F824607D1A5F0EC
:1048F00045FB064650460F46A5F0B6FB83E7044647
:1049000081E700287FF438AFEAE60020A5F0C8FA76
:10491000069B044643B1012BDBF800A00CD1042018
:10492000A5F0BEFA074609E00420A5F0B9FA8246D0
:10493000F5E700BFA4B30D00DBF80470304668F063
:1049400021FD410705903EF53BADA5F032FB0890F7
:1049500068F088F80A9001460898A7F043FD10F027
:104960000406054621D168F047F880462846894666
:10497000A5F07EFAE0B12846A5F000FB8046894606
:104980002046A5F02DFA60B14046494667F0A6FFE3
:1049900083465046A6F001FED8B9BA48A6F0D0FD2D
:1049A00004462846A5F060FB25460A98FFF7D8B9CB
:1049B0002846A6F014FC10F0040F834607D1A5F09A
:1049C000DDFA804658468946A5F04EFBD8E70446F6
:1049D000D6E75046A5F0EDFA0B900420A5F060FA5A
:1049E00000228246002340464946FCF701FC60B1A4
:1049F0003846A5F0FCF940B1A248A6F0A1FD574603
:104A000004463846A5F030FBCBE7069B012B09D8BE
:104A10005746BBF1000F67D15E469A48A6F090FD5D
:104A2000044603E03846A5F0CDFA07462046A5F037
:104A3000D7F9B34561D90028E3D03046A4F075FD1D
:104A4000069001460898A7F0A1FC10F0040F8046DC
:104A500024D1A5F0EFF9E8B13046A5F06BFA059B3B
:104A6000169017930B98042314AA5146CDE9147895
:104A7000A6F067FE10F0040F81460AD13846A5F073
:104A8000F3FA4846A5F09EFA07464846A5F0ECFA28
:104A9000A1464C464046A5F0E7FAA0460698A4F089
:104AA00097FE01364446C1E73046A4F03EFD06902D
:104AB00001460898A7F06AFC10F0040F81461AD14D
:104AC000A5F0B8F9804618B14846A5F07BFA07462C
:104AD0004846A5F0C9FA06980136A4F079FEB8F167
:104AE000000FA3D1B34598D02046A5F079F98046B0
:104AF0000028D9D191E70446EDE7002881D0384657
:104B0000A5F060FA04467CE70020A5F0C9F9069BF1
:104B1000044643B1012BDBF8005009D10420A5F075
:104B2000BFF9824606E00420A5F0BAF90546F5E78C
:104B3000DBF804A0304668F025FC420705903EF5FE
:104B40003FACA5F036FA089067F08CFF0A9001465A
:104B50000898A7F047FC10F0040F80467FF411AED0
:104B600067F04AFF064640460F46A5F081F9002847
:104B70003DD04046A5F002FA06460F462046A5F075
:104B80002FF900283FF4F9AD3046394667F0A6FE0C
:104B900081462846A6F001FD00283FF476AD284660
:104BA000A5F007FA00220B90002330463946FCF7A7
:104BB0001FFB28B15046A5F01AF900287FF465AD17
:104BC0000420A5F06DF9069B19F1FF356BEB0B0B7B
:104BD000012B07461CD80646BBF1FF3F08BFB9F1C1
:104BE000000F23D12748A6F0ABFC044614E0404652
:104BF000A6F0F5FA10F0040F814607D1A5F0BEF932
:104C0000064648460F46A5F02FFAB7E70446B5E733
:104C10005046A5F0D7F906462046A5F0E1F86B1CF2
:104C200069D088BB30465CE504461CE02046A5F010
:104C3000D7F881460028D5D02846A4F076FC069007
:104C400001460898A7F0A2FB10F0040F8246EBD1B2
:104C5000A5F0F0F8814618B15046A5F0B3F9064624
:104C60005046A5F001FA013D06986BF1000BA4F047
:104C7000AFFDB9F1000FCFD1BBF1FF3F08BFB5F1D8
:104C8000FF3FAEE7A4B30D002846A4F04EFC01465A
:104C900082460898A7F07AFB10F0040F814624D1D1
:104CA000A5F0C8F8E8B12846A5F044F9059B169090
:104CB00017930B98042314AA3946CDE91469A6F07A
:104CC00040FD10F0040F83460AD13046A5F0CCF920
:104CD0005846A5F077F906465846A5F0C5F9A3460B
:104CE0005C464846A5F0C0F9A1465046A4F070FDC8
:104CF000013D4C4690E7002894D03046A5F062F97B
:104D000004468FE7000000002DE9F04F272891B0FE
:104D10008A4615461E460FD8223880B201238340AA
:104D200013F0240F08463AD113F0120F32D111B00C
:104D3000BDE8F04FA9F0DFBD2838272801F24581F2
:104D4000DFE810F0320032003800560069008000C1
:104D50009300AA00BD00D500E900010115012D0155
:104D6000410159016D0185019901AF010402110250
:104D70001E0234024A022203EB03EC04EB05510647
:104D8000A6062907AA077408430949096909C3093E
:104D9000E109430911B0BDE8F04F6BF061BE11B0FD
:104DA000BDE8F04F6BF092BE084611B0BDE8F04F81
:104DB0006BF036BE08466BF033FE10F0040F8346EE
:104DC00040F0F785A5F0DAF804460D46A4F041FA64
:104DD00028B11720A4F025FFA5F0BDF8C9E22046B0
:104DE000294602F0A5FB01F01FFEA5F071F8C0E214
:104DF00008466BF015FE10F0040F834640F0D9858D
:104E0000A5F0BCF804460D46A4F023FA0028E0D132
:104E100020462946E7E708466BF002FE10F0040F33
:104E2000834640F0C685A5F0A9F804460D46A4F0D7
:104E300010FA0028CDD12046294602F079FB01F076
:104E4000EBFFD2E708466BF0EBFD10F0040F834652
:104E500040F0AF85A5F092F804460D46A4F0F9F9AC
:104E60000028B6D120462946E9E708466BF0D8FD70
:104E700010F0040F834640F09C85A5F07FF80446AF
:104E80000D46A4F0E6F90028A3D12046294602F0F9
:104E90004FFB02F0B1F9A8E708466BF0C1FD10F036
:104EA000040F834640F08585A5F068F804460D465A
:104EB000A4F0CFF900288CD120462946E9E708461E
:104EC0006BF0AEFD10F0040F834640F07285A5F044
:104ED00055F804460D46A4F0BCF900287FF479AFDC
:104EE0002046294602F024FB02F0F2FA7DE708464C
:104EF0006BF096FD10F0040F834640F05A85A5F044
:104F00003DF804460D46A4F0A4F900287FF461AFF3
:104F100020462946E8E708466BF082FD10F0040FB2
:104F2000834640F04685A5F029F804460D46A4F0D6
:104F300090F900287FF44DAF2046294602F0F8FA98
:104F400002F086FB51E708466BF06AFD10F0040F93
:104F5000834640F02E85A5F011F804460D46A4F0D6
:104F600078F900287FF435AF20462946E8E708465F
:104F70006BF056FD10F0040F834640F01A85A4F044
:104F8000FDFF04460D46A4F064F900287FF421AF2C
:104F90002046294602F0CCFA02F08AFB25E70846B3
:104FA0006BF03EFD10F0040F834640F00285A4F044
:104FB000E5FF04460D46A4F04CF900287FF409AF44
:104FC00020462946E8E708466BF02AFD10F0040F5A
:104FD000834640F0EE84A4F0D1FF04460D46A4F0D1
:104FE00038F900287FF4F5AE2046294602F0A0FAF1
:104FF0006CF054FEF9E608466BF012FD10F0040F59
:10500000834640F0D684A4F0B9FF04460D46A4F0D0
:1050100020F900287FF4DDAE20462946E8E708465F
:105020006BF0FEFC10F0040F834640F0C284A4F045
:10503000A5FF04460D46A4F00CF900287FF4C9AE84
:105040002046294602F074FA6CF050FECDE6084680
:105050006BF0E6FC10F0040F834640F0AA84A4F045
:105060008DFF04460D46A4F0F4F800287FF4B1AE9D
:1050700020462946E8E708466BF0D2FC10F0040F02
:10508000834640F09684A4F079FF04460D46A4F0D0
:10509000E0F800287FF49DAE2046294602F0A4FDEA
:1050A000A3E676B116680020A4F0FAFE83465046C7
:1050B000A4F0EFFE50B9B34811B0BDE8F04FA6F030
:1050C0003FBA0420A4F0ECFE0646ECE75046A4F0FC
:1050D00070FF68F00DFF2328EDD167F08DFC0446CA
:1050E00030460D46A4F0C4FE00B33046A4F046FF9F
:1050F00004460D465846A4F073FE002800F059847B
:105100002046294602F048FD044650460D46A4F0CC
:1051100050FF0721A5F085FA036829462046C3E918
:10512000004511B0BDE8F04FA4F0D2BE3046A6F065
:1051300056F84107064607D4A4F020FF044630463F
:105140000D46A4F091FFD5E78346D3E736B1116849
:10515000504611B0BDE8F04FA9F0EBBB0420A4F01D
:105160009FFE0146F4E736B11168504611B0BDE824
:10517000F04FA9F04DBC0420A4F092FE0146F4E7E4
:105180003EB1012E146809D10420A4F089FE024624
:1051900005E00420A4F084FE0446F5E752682146A9
:1051A000504611B0BDE8F04FA9F09FBC3EB1012EB2
:1051B000146809D10420A4F073FE024605E004201F
:1051C000A4F06EFE0446F5E752682146504611B041
:1051D000BDE8F04FA9F021BD0020A4F061FE044617
:1051E00050466BF01DFC10F0040F834640F0E18345
:1051F000A4F0C4FE02F09CF9CDE9080167F0FCFBC5
:1052000080468946DDE908016CF048FDCDE90601DC
:10521000DDE908016CF06AFDCDE90A01002E7FD0BE
:105220002868A4F0E4FD00287AD167F0E5FB2F6838
:10523000CDE904013846A4F01BFE002840D03846D2
:10524000A4F09CFECDE904012046A4F0C9FD00288D
:1052500066D0012E66D06868A4F0C9FD002861D12F
:1052600067F0CAFB6F68804638468946A4F000FEA6
:10527000002835D03846A4F081FE80468946204675
:10528000A4F0AEFD00284DD0022E16D0A868A4F0E0
:10529000AEFD90B967F0B0FBAD68064628460F46F4
:1052A000A4F0E6FD60B32846A4F068FE06460F466B
:1052B0002046A4F095FD002861D1CDE9068931E0B2
:1052C0003846A5F08CFF4207074607D4A4F056FEE7
:1052D000CDE904013846A4F0C7FEB5E70446B3E7BC
:1052E0003846A5F07CFF4307074607D4A4F046FEE6
:1052F000804638468946A4F0B7FEC0E70446BEE7BC
:105300002846A5F06CFF4107054607D4A4F036FEF9
:10531000064628460F46A4F0A7FEC9E70446C7E79D
:10532000CDE904892046A4F05BFD18B3DDE908014E
:1053300002F08EF906460F46DDE9080101F044FB54
:105340009DED0A7B8DED027B9DED067BDDE904235F
:105350008DED007B04460D463046394602F0D8F903
:105360000123CDE90001029322462B46504602F06C
:105370009FFC04465846A4F077FEA34619E3CDE906
:105380000A679AE7BF010E000020A4F089FD0446D9
:1053900050466BF045FB10F0040F834640F0098344
:1053A000A4F0ECFDCDE9080167F026FB80468946B4
:1053B000DDE908016CF072FCCDE90601DDE90801C8
:1053C0006CF094FCCDE90A01002E7FD02868A4F08F
:1053D0000EFD00287AD167F00FFB2F68CDE904019C
:1053E0003846A4F045FD002840D03846A4F0C6FD5C
:1053F000CDE904012046A4F0F3FC002866D0012E7C
:1054000066D06868A4F0F3FC002861D167F0F4FA74
:105410006F68804638468946A4F02AFD002835D0BA
:105420003846A4F0ABFD804689462046A4F0D8FC5F
:1054300000284DD0022E16D0A868A4F0D8FC90B950
:1054400067F0DAFAAD68064628460F46A4F010FD6C
:1054500060B32846A4F092FD06460F462046A4F00D
:10546000BFFC002856D1CDE9068931E03846A5F0C9
:10547000B6FE4207074607D4A4F080FDCDE904013B
:105480003846A4F0F1FDB5E70446B3E73846A5F089
:10549000A6FE4307074607D4A4F070FD80463846B1
:1054A0008946A4F0E1FDC0E70446BEE72846A5F022
:1054B00096FE4107054607D4A4F060FD064628463F
:1054C0000F46A4F0D1FDC9E70446C7E7CDE904893A
:1054D0002046A4F085FC00283FF44CAFDDE908012C
:1054E00002F0B6F806460F46DDE9080101F06CFA55
:1054F0009DED0A7B8DED027B9DED067BDDE90423AE
:105500008DED007B04460D463046394602F000F929
:10551000002326E7CDE90A67A5E70020A4F0C0FC38
:10552000044650466BF07CFA10F0040F834640F0BE
:105530004082A4F023FD01F0FBFFCDE90A0167F0F2
:105540005BFACDE90C01DDE90A0102F0B1F8804611
:105550008946DDE90A016CF0A1FBCDE90801DDE92E
:105560000A016CF0C3FBCDE90E01002E00F0B18002
:105570002868A4F03CFC002840F0AB8067F03CFABF
:105580002F68CDE906013846A4F072FC002860D0EF
:105590003846A4F0F3FCCDE906012046A4F020FC37
:1055A000002800F09680012E00F0B2806868A4F018
:1055B0001EFC002840F0AC8067F01EFA6F68CDE951
:1055C00004013846A4F054FC002852D03846A4F018
:1055D000D5FCCDE904012046A4F002FC002800F02F
:1055E0009780022E7BD0A868A4F001FC002876D119
:1055F00067F002FAAF68804638468946A4F038FC66
:10560000002846D03846A4F0B9FC8046894620469A
:10561000A4F0E6FB002862D0032E17D0E868A4F0BF
:10562000E6FB98B967F0E8F9ED68064628460F46AC
:10563000A4F01EFC00283CD02846A4F09FFC06469F
:105640000F462046A4F0CCFB002864D1CDE90889A0
:1056500045E03846A5F0C3FD4207074607D4A4F04D
:105660008DFCCDE906013846A4F0FEFC95E7044622
:1056700093E73846A5F0B3FD4307074607D4A4F0E7
:105680007DFCCDE904013846A4F0EEFCA3E7044616
:10569000A1E73846A5F0A3FD4107074607D4A4F0CB
:1056A0006DFC804638468946A4F0DEFCAFE7044630
:1056B000ADE72846A5F093FD4207054607D4A4F0C0
:1056C0005DFC064628460F46A4F0CEFCB9E704462A
:1056D000B7E79DED0C7BCDE904898DED067B204677
:1056E000A4F07EFB00283FF445AEDDE90A0101F09D
:1056F0006BF99DED0E7B8DED027B9DED087B0446E5
:105700000D468DED007BDDE90423DDE9060125E68C
:10571000CDE90489E3E7CDE90E6797E70020A4F01F
:10572000BFFB044650466BF07BF910F0040F834634
:1057300040F03F81A4F022FCCDE90A0167F05CF95A
:10574000CDE90C01DDE90A0101F0B2FF804689468E
:10575000DDE90A016CF0A2FACDE90801DDE90A01F0
:105760006CF0C4FACDE90E01002E00F0B18028687B
:10577000A4F03DFB002840F0AB8067F03DF92F68B6
:10578000CDE906013846A4F073FB002860D0384606
:10579000A4F0F4FBCDE906012046A4F021FB00288B
:1057A00000F09680012E00F0B2806868A4F01FFB24
:1057B000002840F0AC8067F01FF96F68CDE9040164
:1057C0003846A4F055FB002852D03846A4F0D6FB4A
:1057D000CDE904012046A4F003FB002800F09780E7
:1057E000022E7BD0A868A4F002FB002876D167F0D7
:1057F00003F9AF68804638468946A4F039FB002893
:1058000046D03846A4F0BAFB804689462046A4F02C
:10581000E7FA002862D0032E17D0E868A4F0E7FA70
:1058200098B967F0E9F8ED68064628460F46A4F0F7
:105830001FFB00283CD02846A4F0A0FB06460F46DC
:105840002046A4F0CDFA002864D1CDE9088945E0CE
:105850003846A5F0C4FC4307074607D4A4F08EFBE6
:10586000CDE906013846A4F0FFFB95E7044693E72F
:105870003846A5F0B4FC4107074607D4A4F07EFBE8
:10588000CDE904013846A4F0EFFBA3E70446A1E705
:105890003846A5F0A4FC4207074607D4A4F06EFBE7
:1058A000804638468946A4F0DFFBAFE70446ADE703
:1058B0002846A5F094FC4307054607D4A4F05EFBF8
:1058C000064628460F46A4F0CFFBB9E70446B7E7E3
:1058D0009DED0C7BCDE904898DED067B2046A4F07F
:1058E0007FFA00283FF446ADDDE90A0101F06CF8CB
:1058F0009DED0E7B8DED027B9DED087B04460D46F4
:105900008DED007BDDE90423DDE90601FEE5CDE94F
:105910000489E3E7CDE90E6797E7002E4DD0D2F872
:1059200000900020A4F0BCFA804650466BF078F856
:1059300010F0040F83463CD1A4F020FB01F0F8FDE9
:1059400006460F4667F058F8044648460D46A4F050
:105950008FFAB8B34846A4F011FB04460D46404602
:10596000A4F03EFA08B33046394601F05DF88046AF
:1059700089463046394601F04FFACDE900450246E6
:105980000B464046494601F04FFF04460D4630465F
:10599000394601F031F80123CDE900010293224696
:1059A0002B46504602F084F980465846A4F05CFB32
:1059B000C346584611B0BDE8F08F0420A4F070FA39
:1059C0008146AEE74846A5F00AFC10F0040F814678
:1059D00007D1A4F0D3FA044648460D46A4F044FB90
:1059E000BDE78046BBE7002E3CD0D2F800900020F7
:1059F000A4F056FA804650466BF012F810F0040FEF
:105A00008346D6D1A4F0BAFA06460F4666F0F4FFF4
:105A1000044648460D46A4F02BFA40B34846A4F08D
:105A2000ADFA04460D464046A4F0DAF90028BCD091
:105A30003046394600F0F8FF804689463046394600
:105A400001F0EAF9CDE9004502460B4640464946D9
:105A500001F0EAFE04460D463046394600F0CCFF20
:105A6000002399E70420A4F01BFA8146BFE74846CB
:105A7000A5F0B5FB10F0040F814607D1A4F07EFA23
:105A8000044648460D46A4F0EFFACCE78046CAE744
:105A90003EB1012E146809D10420A4F001FA814618
:105AA00006E00420A4F0FCF90446F5E7D2F80490DF
:105AB0000020A4F0F5F9804650466AF0B1FF10F0DE
:105AC000040F83467FF475AFA4F058FA01F030FD5F
:105AD000CDE9040166F090FF064620460F46A4F08B
