:040000032000874D05
:020000040000FA
:1000000000040020990900002D0600007909000075
:1000100037060000410600004B060000000000000B
:10002000000000000000000000000000BD0900000A
:1000300055060000000000005F0600006906000091
:10004000730600007D060000870600009106000090
:100050009B060000A5060000AF060000B9060000E0
:10006000C3060000CD060000D7060000E106000030
:10007000EB060000F5060000FF060000090700007F
:10008000130700001D0700002707000031070000CC
:100090003B070000450700004F070000590700001C
:1000A000630700006D07000077070000810700006C
:1000B0008B070000950700009F070000A9070000BC
:1000C000B3070000BD070000C7070000D10700000C
:1000D000DB070000E5070000EF070000F90700005C
:1000E000030800000D0800001708000021080000A8
:1000F0002B080000350800003F08000049080000F8
:10010000530800001FB500F003F88DE80F001FBD75
:1001100000F038BC70B50B46010B184400F6FF70B8
:10012000040B4FF080500022090303692403406947
:1001300043431D1B104600F0E9F929462046BDE85F
:10014000704000F0E3B9F0B54FF6FF734FF4B475AB
:100150001A466E1E12E0A94201D3344600E00C4656
:10016000B1EB040130F8027B641E3B441A44F9D120
:100170009CB204EB134394B204EB12420029EAD17F
:1001800098B200EB134002EB124140EA0140F0BD8F
:10019000C34992B00446D1E90001CDE91001FF2224
:1001A0004021684600F094FB94E80F008DE80F00B2
:1001B000684610A902E004C841F8042D8842FAD12B
:1001C00010216846FFF7BFFF1090AA208DF8440069
:1001D00000F0FAF800F0DDF84FF01024A0691022CA
:1001E0006946803000F0DEF8A069082210A900F00E
:1001F000D9F800F0C2F870B504460068A94D072888
:1002000069D2DFE800F033041929561E2500D4E92D
:10021000026564682946304600F0FDF82A4621460A
:10022000304600F0BFF8AA002146304600F024FB1B
:10023000002800D0032070BD00F0D6FB4FF48050A2
:1002400007E0201D00F0C6F80028F4D100F0CCFB38
:1002500060682860002070BD241D94E807009200AB
:1002600000F00AFB0028F6D00E2070BD00F0BEF8AA
:100270000028FAD1D4E9010100EB81034FF080504E
:10028000026945696A43934209D84FF010225369C5
:1002900003EB81030169406941438B4201D9092085
:1002A00070BD5069401C01D10F2070BD2046FFF782
:1002B0006FFF00F09BF80028F7D1201D00F08AF8AE
:1002C0000028F2D160680028F0D100F07DF800F03D
:1002D00060F800F052F8072070BD10B50C461828E1
:1002E00002D00120086010BD2068FFF784FF206065
:1002F00010BD4FF01024A069401C05D0A569A66967
:1003000080353079AA2808D06069401C2DD06069FA
:100310000068401C29D060692CE010212846FFF7B6
:1003200012FF316881421CD1A16901F18002C03104
:1003300005E030B108CA51F8040D984201D10120FE
:1003400000E000208A42F4D158B1286810B1042896
:1003500003D0FEE7284600F070F85249686808604C
:1003600008E000F016F800F008F84FF4805001683B
:10037000491C01D000F012FBFEE7BFF34F8F4A4843
:1003800001684A4A01F4E06111430160BFF34F8FF5
:10039000FEE74FF010208169491C02D0806900F00F
:1003A0008CB870472DE9F04117460D4606460024EB
:1003B00006E03046296800F093F8641C2D1D361DB8
:1003C000BC42F6D3BDE8F0814FF0102080694FF4B5
:1003D00080519FE64FF080510A69496900684A439D
:1003E000824201D810207047002070474FF08050A3
:1003F0000169406941434FF01020826902F5805243
:10040000914201D2092070478069401C01D0002030
:1004100070470420704770B50C4605464FF480665F
:1004200008E0284600F049F8B44205D3A4F58064FA
:1004300005F58055002CF4D170BD4168044609B122
:10044000012600E000264FF010256869A26892009E
:1004500000F012FAF8B1A06881006869FFF75AFE4F
:10046000BEB16E694FF08050A56864680169426949
:100470005143A1420DD9016940694143A94208D9BC
:1004800029463046FFF7C7FF2A4621463046FFF788
:1004900089FFFFF772FFFFF797FFFFF77AFFF8E793
:1004A0000C0A0000000000200CED00E00400FA053A
:1004B000144801680029FCD07047134A02211160DA
:1004C00010490B68002BFCD00F4B1B1D18600868EF
:1004D0000028FCD00020106008680028FCD070477D
:1004E000094B10B501221A60064A1468002CFCD092
:1004F000016010680028FCD00020186010680028F7
:10050000FCD010BD00E4014004E5014070B50C468C
:10051000054600F073F810B900F07EF828B12146C6
:100520002846BDE8704000F007B821462846BDE8DF
:10053000704000F037B800007FB5002200920192B1
:10054000029203920A0B000B6946012302440AE05F
:10055000440900F01F0651F8245003FA06F635430B
:1005600041F82450401C8242F2D80D490868009A94
:1005700010430860081D0168019A1143016000F0F2
:100580003DF800280AD0064910310868029A104345
:100590000860091D0868039A104308607FBD0000C9
:1005A0000006004030B50F4C002200BF04EB0213E0
:1005B000D3F800582DB9D3F8045815B9D3F8085812
:1005C0001DB1521C082AF1D330BD082AFCD204EB1D
:1005D0000212C2F80008C3F804180220C3F8080881
:1005E00030BD000000E001404FF08050D0F83001F5
:1005F000082801D000207047012070474FF080503C
:10060000D0F83011062905D0D0F83001401C01D0B7
:1006100000207047012070474FF08050D0F8300123
:100620000A2801D0002070470120704708208F4918
:1006300009680958084710208C4909680958084773
:1006400014208A4909680958084718208749096809
:100650000958084730208549096809580847382053
:1006600082490968095808473C20804909680958A7
:10067000084740207D4909680958084744207B49BC
:1006800009680958084748207849096809580847FF
:100690004C20764909680958084750207349096871
:1006A00009580847542071490968095808475820D3
:1006B0006E490968095808475C206C49096809585F
:1006C0000847602069490968095808476420674954
:1006D00009680958084768206449096809580847A3
:1006E0006C20624909680958084770205F49096809
:1006F0000958084774205D49096809580847782057
:100700005A490968095808477C2058490968095816
:1007100008478020554909680958084784205349EB
:100720000968095808478820504909680958084746
:100730008C204E4909680958084790204B490968A0
:1007400009580847942049490968095808479820DA
:1007500046490968095808479C20444909680958CE
:100760000847A0204149096809580847A4203F4983
:10077000096809580847A8203C49096809580847EA
:10078000AC203A49096809580847B0203749096838
:1007900009580847B4203549096809580847B8205E
:1007A0003249096809580847BC2030490968095886
:1007B0000847C0202D49096809580847C4202B491B
:1007C000096809580847C82028490968095808478E
:1007D000CC202649096809580847D02023490968D0
:1007E00009580847D4202149096809580847D820E2
:1007F0001E49096809580847DC201C49096809583E
:100800000847E0201949096809580847E4201749B2
:10081000096809580847E820144909680958084731
:10082000EC201249096809580847F0200F49096867
:1008300009580847F4200D49096809580847F82065
:100840000A49096809580847FC20084909680958F5
:1008500008475FF480700549096809580847000097
:1008600003480449024A034B70470000000000207F
:10087000180A0000180A000040EA010310B59B079F
:100880000FD1042A0DD310C808C9121F9C42F8D0FA
:1008900020BA19BA884201D9012010BD4FF0FF30AB
:1008A00010BD1AB1D30703D0521C07E0002010BDC1
:1008B00010F8013B11F8014B1B1B07D110F8013B4D
:1008C00011F8014B1B1B01D1921EF1D1184610BD2E
:1008D00002F0FF0343EA032242EA024200F005B8B5
:1008E0007047704770474FF000020429C0F0128033
:1008F00010F0030C00F01B80CCF1040CBCF1020FD3
:1009000018BF00F8012BA8BF20F8022BA1EB0C01A7
:1009100000F00DB85FEAC17C24BF00F8012B00F89D
:10092000012B48BF00F8012B70474FF0000200B5C3
:10093000134694469646203922BFA0E80C50A0E802
:100940000C50B1F12001BFF4F7AF090728BFA0E8B0
:100950000C5048BF0CC05DF804EB890028BF40F87C
:10096000042B08BF704748BF20F8022B11F0804FBE
:1009700018BF00F8012B7047014B1B68DB68184754
:100980000000002009480A497047FFF7FBFFFFF706
:10099000B9FB00BD20BFFDE7064B1847064A1060B3
:1009A000016881F30888406800470000180A0000C9
:1009B000180A0000F3020000000000201EF0040FDF
:1009C0000CBFEFF30881EFF30981886902380078E2
:1009D000182803D100E00000074A1047074A1268B0
:1009E0002C3212681047000000B5054B1B68054A01
:1009F0009B58984700BD0000DB020000000000206B
:100A0000080A0000040000000010000000000000C0
:080A100000FFFFFF0090D0037E
:10100000E0120020754D0200192F0000E74C02008D
:10101000192F0000192F0000192F000000000000F8
:10102000000000000000000000000000CD4D0200A4
:10103000192F000000000000192F0000192F0000D8
:10104000354E02003B4E0200192F0000192F000000
:10105000192F0000192F0000192F0000192F000070
:10106000414E0200192F0000192F0000474E0200C8
:10107000192F00004D4E0200534E0200594E02003F
:10108000192F0000192F0000192F0000192F000040
:10109000192F0000192F0000192F0000192F000030
:1010A000192F00005F4E0200192F0000192F0000B9
:1010B000192F0000192F0000192F0000192F000010
:1010C000654E0200192F0000192F0000192F000093
:1010D000192F0000192F0000192F0000192F0000F0
:1010E000192F0000192F0000192F0000192F0000E0
:1010F000192F0000192F0000192F0000192F0000D0
:10110000192F0000192F000000F002F823F01FFE35
:101110000AA090E8000C82448344AAF10107DA4552
:1011200001D123F014FEAFF2090EBAE80F0013F05C
:10113000010F18BFFB1A43F00103184734420200A5
:10114000544202000A444FF0000C10F8013B13F027
:10115000070408BF10F8014B1D1108BF10F8015B10
:10116000641E05D010F8016B641E01F8016BF9D103
:1011700013F0080F1EBF10F8014BAD1C0C1B09D15A
:101180006D1E58BF01F801CBFAD505E014F8016BCC
:1011900001F8016B6D1EF9D59142D6D3704700005E
:1011A0000023002400250026103A28BF78C1FBD870
:1011B000520728BF30C148BF0B6070471FB500F011
:1011C0003DF88DE80F001FBD1EF0040F0CBFEFF3BC
:1011D0000880EFF30980014A10470000752E0000D7
:1011E0008269034981614FF001001044704700009B
:1011F000F511000001B41EB400B512F061FF01B496
:101200000198864601BC01B01EBD0000F0B4404606
:10121000494652465B460FB402A0013001B506486C
:10122000004700BF01BC86460FBC804689469246F7
:101230009B46F0BC704700000911000023F084BDFC
:1012400070B51A4C054609202070A01C00F05FF80C
:101250005920A08029462046BDE8704008F060B8BB
:1012600008F069B870B50C461149097829B1A0F1A8
:1012700060015E2908D3012013E0602804D06928AA
:1012800002D043F201000CE020CC0A4E94E80E009C
:1012900006EB8000A0F58050241FD0F8806E284611
:1012A000B047206070BD012070470000080000209A
:1012B0001C000020CC4E020010B504460021012085
:1012C00000F03DF800210B2000F039F8042119202E
:1012D00000F035F804210D2000F031F804210E2033
:1012E00000F02DF804210F2000F029F80421C84354
:1012F00000F025F80621162000F021F8062115201F
:1013000000F01DF82046FFF79BFF002010BDA9212B
:1013100001807047FFF7A4BF11487047104870471D
:10132000104A10B514680F4B0F4A08331A60FFF7C4
:1013300099FF0C48001D046010BD704770474907B5
:10134000090E002806DA00F00F0000F1E02080F816
:10135000141D704700F1E02080F800147047000071
:1013600003F900421005024001000001FE4800217F
:1013700001604160018170472DE9F743044692B056
:101380009146406813F060F940B1606813F065F968
:1013900020B9607800F00300022801D0012000E0AD
:1013A0000020F14E3072484613F00AF918B11020AF
:1013B00015B0BDE8F0834946012001F018FF002870
:1013C000F6D101258DF842504FF4C050ADF84000E1
:1013D000002210A9284606F04BFC0028E8D18DF821
:1013E00042504FF428504FF00008ADF840004746F7
:1013F0001C216846CDF81C8023F04DFC9DF81C0094
:1014000008AA20F00F00401C20F0F00010308DF8EA
:101410001C0020788DF81D0061789DF81E0061F396
:10142000420040F001008DF81E009DF800000AA95E
:1014300040F002008DF800002089ADF83000ADF8D2
:101440003270608907AFADF834000B97606810AC5C
:101450000E900A94684606F000FA0028A8D1BDF85C
:10146000200030808DF8425042F60120ADF8400057
:101470009DF81E0008AA20F00600801C20F0010044
:101480008DF81E000220ADF83000ADF8340013A82E
:101490000E900AA9684606F0E0F9002888D1BDF848
:1014A00020007080311D484600F033F9002887D1B4
:1014B0008DF8425042F6A620ADF840001C21684647
:1014C000CDF81C8023F0E7FB9DF81C00ADF83450EC
:1014D00020F00F00401C20F0F00010308DF81C00B0
:1014E0009DF81D0008AA20F0FF008DF81D009DF852
:1014F0001E000AA920F0060040F00100801C8DF8B3
:101500001E009DF800008DF8445040F002008DF858
:101510000000CDE90A4711A80E90ADF8305068469A
:1015200006F09BF9002899D1BDF82000F08000203A
:101530003EE73EB504460820ADF80000204613F013
:101540003FF808B110203EBD2146012001F04FFEBA
:101550000028F8D12088ADF804006088ADF80600B6
:10156000A088ADF80800E088ADF80A007E4801AB1D
:101570006A468088002106F075FDBDF80010082934
:10158000E1D003203EBD1FB5044600200290082094
:10159000ADF80800CDF80CD0204613F011F810B1CA
:1015A000102004B010BD704802AA81884FF6FF7069
:1015B00006F09AFF0028F4D1BDF80810082901D0E0
:1015C0000320EEE7BDF800102180BDF80210618015
:1015D000BDF80410A180BDF80610E180E1E701B577
:1015E00082B00220ADF800005F4802AB6A46408836
:1015F000002106F037FDBDF80010022900D00320BD
:101600000EBD1CB5002100910221ADF80010019023
:1016100012F0FCFF08B110201CBD53486A464188F7
:101620004FF6FF7006F060FFBDF800100229F3D0FE
:1016300003201CBDFEB54C4C06461546207A0F46CD
:10164000C00705D0084612F0BBFF18B11020FEBD40
:101650000F20FEBDF82D01D90C20FEBD304612F042
:10166000AFFF18BB208801A905F040FE0028F4D187
:1016700030788DF80500208801A906F0D2FC0028FA
:10168000EBD100909DF800009DF8051040F002009D
:101690008DF80000090703D040F008008DF8000025
:1016A0002088694606F05AFC0028D6D1ADF80850CB
:1016B00020883B4602AA002106F0D4FCBDF80810A1
:1016C000A942CAD00320FEBD7CB50546002000908B
:1016D00001900888ADF800000C462846019512F0EC
:1016E000B3FF18B9204612F091FF08B110207CBD5D
:1016F00015B1BDF8000050B11B486A4601884FF68D
:10170000FF7006F0F1FEBDF8001021807CBD0C20BA
:101710007CBD30B593B0044600200D4600901421E6
:1017200001A823F0B8FA1C2108A823F0B4FA9DF808
:101730000000CDF808D020F00F00401C20F0F00091
:1017400010308DF800009DF8010020F0FF008DF8AA
:1017500001009DF8200040F002008DF820000120DB
:101760008DF8460002E000000C02002042F6042042
:10177000ADF8440011A801902088ADF83C006088C5
:10178000ADF83E00A088ADF84000E088ADF842001A
:101790009DF8020006AA20F00600801C20F001003F
:1017A0008DF802000820ADF80C00ADF810000FA86D
:1017B000059001A908A806F050F8002803D1BDF84B
:1017C00018002880002013B030BD0000F0B5007B69
:1017D000059F1E4614460D46012800D0FFDF0C2051
:1017E00030803A203880002C08D0287A032806D090
:1017F000287B012800D0FFDF17206081F0BDA88979
:10180000FBE72DE9F04786B0144691F80C900E9A4C
:101810000D46B9F1010F0BD01021007B2E8A8846AE
:10182000052807D0062833D0FFDF06B0BDE8F087D3
:101830000221F2E7E8890C2100EB400001EB4000B7
:10184000188033201080002CEFD0E88960810027B9
:101850001AE00096688808F1020301AA696900F09D
:1018600084FF06EB0800801C07EB470186B204EBFF
:101870004102BDF8040090810DF1060140460E3290
:1018800010F074FF7F1CBFB26089B842E1D8CCE78A
:1018900034201080E889B9F1010F11D0122148439A
:1018A0000E301880002CC0D0E88960814846B9F11C
:1018B000010F00D00220207300270DF1040A1FE061
:1018C0000621ECE70096688808F1020301AA69691D
:1018D00000F04BFF06EB0800801C86B2B9F1010F47
:1018E00012D007EBC70004EB4000BDF80410C18123
:1018F00010220AF10201103023F02CF97F1CBFB234
:101900006089B842DED890E707EB470104EB41025B
:10191000BDF80400D0810AF102014046103210F0F7
:1019200025FFEBE72DE9F0470E4688B090F80CC094
:1019300096F80C80378AF5890C20109902F10C0476
:101940004FF0000ABCF1030F08D0BCF1040F3ED0E9
:10195000BCF1070F7DD0FFDF08B067E705EB850C12
:1019600000EB4C00188031200880002AF4D0A8F148
:10197000060000F0FF09558125E0182101A823F099
:101980008AF900977088434601AA716900F0EDFE5C
:10199000BDF804002080BDF80600E080BDF8080016
:1019A0002081A21C0DF10A01484610F0DFFEB9F1BA
:1019B000000F00D018B184F804A0A4F802A007EB2F
:1019C000080087B20A346D1EADB2D6D2C4E705EB6B
:1019D000850C00EB4C00188032200880002ABBD018
:1019E000A8F1050000F0FF09558137E000977088E5
:1019F000434601AA716900F0B8FE9DF80600BDF8E3
:101A00000410E1802179420860F3000162F3410192
:101A1000820862F38201C20862F3C301020962F321
:101A20000411420962F34511820962F386112171A2
:101A3000C0096071BDF80700208122460DF109013F
:101A4000484610F093FE18B184F802A0A4F800A054
:101A500000E007E007EB080087B20A346D1EADB264
:101A6000C4D279E7A8F1020084B205FB08F000F1C6
:101A70000E0CA3F800C035230B80002AA6D0558198
:101A80009481009783B270880E32716900F06DFE08
:101A900062E72DE9F84F1E460A9D0C4681462AB1A1
:101AA000607A00F58070D080E089108199F80C0090
:101AB0000C274FF000084FF00E0A0D2873D2DFE814
:101AC00000F09E070E1C28303846556A7373730069
:101AD000214648460095FFF779FEBDE8F88F207B48
:101AE0009146082802D0032800D0FFDF378030203D
:101AF0000AE000BFA9F80A80EFE7207B914604289E
:101B000000D0FFDF378031202880B9F1000FF1D1FC
:101B1000E3E7207B9146042800D0FFDF37803220A6
:101B2000F2E7207B9146022800D0FFDF3780332088
:101B3000EAE7207B1746022800D0FFDF3420A6F812
:101B400000A02880002FC8D0A7F80A80C5E7207B16
:101B50001746042800D0FFDF3520A6F800A0288013
:101B6000002FBAD04046A7F80A8012E0207B174623
:101B7000052802D0062800D0FFDF10203080362054
:101B80002880002FA9D0E0897881A7F80E80B9F8C5
:101B90000E00B881A1E7207B9146072800D0FFDF27
:101BA00037803720B0E72AE04FF0120018804FF05E
:101BB00038001700288090D0E0897881A7F80E803F
:101BC000A7F8108099F80C000A2805D00B2809D036
:101BD0000C280DD0FFDF80E7207B0A2800D0FFDF34
:101BE00001200AE0207B0B2800D0FFDF042004E066
:101BF000207B0C2800D0FFDF052038736DE7FFDF66
:101C00006BE770B50C46054601F025FC20B1007865
:101C1000222804D2082070BD43F2020070BD0521C5
:101C200028460FF021F8206008B1002070BD032085
:101C300070BD30B44880087820F00F00C01C20F040
:101C4000F000903001F8080B1DCA81E81D0030BC7F
:101C500007F0E7BB2DE9FF4784B0002782460297D3
:101C600007989046894612300AF048F9401D20F046
:101C70000306079828B907A95046FFF7C2FF0028B6
:101C800054D1B9F1000F05D00798017B19BB052588
:101C900004681BE098F80000092803D00D2812D032
:101CA000FFDF46E0079903254868B0B3497B4288C7
:101CB0007143914239D98AB2B3B2011D0EF047FE89
:101CC0000446078002E0079C042508340CB12088F4
:101CD00010B1032D29D02CE00798012112300AF011
:101CE0003FF9ADF80C00024602AB2946504608F019
:101CF000F4F9070001D1A01C029007983A4612306F
:101D0000C8F80400A8F802A003A94046029B0AF004
:101D100034F9D8B10A2817D200E006E0DFE800F075
:101D200007091414100B0D141412132014E60020CC
:101D300012E6112010E608200EE643F203000BE63F
:101D4000072009E60D2007E6032005E6BDF80C0094
:101D50002346CDE900702A465046079900F015FD4C
:101D600057B9032D08D10798B3B2417B406871433E
:101D70008AB2011D0EF0FFFDB9F1000FD7D007990F
:101D800081F80C90D3E72DE9FE4F91461A881C4646
:101D90008A468046FAB102AB494608F09EF9050032
:101DA00019D04046A61C27880FF0A2F83246072615
:101DB00029463B4600960EF0B0FC20882346CDE92C
:101DC00000504A465146404600F0DFFC002020808B
:101DD0000120BDE8FE8F0020FBE710B586B01C4651
:101DE000AAB104238DF800301388ADF8083052886A
:101DF000ADF80A208A788DF80E200988ADF80C100D
:101E000000236A462146FFF725FF06B010BD1020CB
:101E1000FBE770B50D4605210EF026FF040000D14A
:101E2000FFDF294604F11200BDE870400AF081B8D6
:101E30002DE9F8430D468046002607F0EFFA0446E8
:101E40002878102878D2DFE800F0773B345331311E
:101E5000123131310831313131312879001FC0B2AE
:101E6000022801D0102810D114BBFFDF35E004B9DF
:101E7000FFDF052140460EF0F7FE007B032806D069
:101E800004280BD0072828D0FFDF072655E0287943
:101E9000801FC0B2022820D050B1F6E72879401F39
:101EA000C0B2022819D0102817D0EEE704B9FFDF1E
:101EB00013E004B9FFDF287901280ED1172137E09C
:101EC000052140460EF0D0FE070000D1FFDF07F1EC
:101ED000120140460AF00AF82CB12A462146404633
:101EE000FFF7A7FE29E01321404602F0A9FD24E0F8
:101EF00004B9FFDF052140460EF0B6FE060000D112
:101F0000FFDF694606F1120009F0FAFF060000D073
:101F1000FFDFA988172901D2172200E00A46BDF881
:101F20000000824202D9014602E005E01729C5D32C
:101F3000404600F03AFCD0E7FFDF3046BDE8F883CA
:101F4000401D20F0030219B102FB01F0001D00E06A
:101F500000201044704713B5009848B1002468462B
:101F60000EF09FFC002C02D1F74A009911601CBDB5
:101F700001240020F4E72DE9F0470C461546242102
:101F8000204622F088FE05B9FFDFA8786073288814
:101F9000DFF8B4A3401D20F00301AF788946DAF8DA
:101FA00000000EF09CFC060000D1FFDF4FF000089F
:101FB0002660A6F8008077B109FB07F1091D0AD059
:101FC000DAF800000EF08BFC060000D1FFDF66603F
:101FD000C6F8008001E0C4F80480298804F11200EA
:101FE000BDE8F04709F074BF2DE9F047804601F1E4
:101FF00012000D46814609F081FF401DD24F20F0AE
:1020000003026E7B1446296838680EF093FC3EB1DB
:1020100004FB06F2121D03D0696838680EF08AFCD2
:1020200005200EF0C9FD044605200EF0CDFD201A56
:10203000012802D138680EF047FC49464046BDE809
:10204000F04709F05ABF70B5054605210EF00CFEA9
:10205000040000D1FFDF04F112012846BDE8704002
:1020600009F044BF2DE9F04F91B04FF0000BADF8EF
:1020700034B0ADF804B047880C46054692460521B9
:1020800038460EF0F1FD060000D1FFDF24B1A78035
:10209000A4F806B0A4F808B0297809220B20B2EB06
:1020A000111F7DD12A7A04F1100138274FF00C0856
:1020B0004FF001090391102A73D2DFE802F072F2A7
:1020C000F1F07F08D2888D9F3DDBF3EEB6B6307B12
:1020D000022800D0FFDFA88908EBC001ADF804108A
:1020E0003021ADF83410002C25D06081B5F80E9069
:1020F00000271DE004EBC708317C88F80E10F18939
:10210000A8F80C10CDF800906888042304AA296967
:1021100000F02BFBBDF81010A8F8101009F1040016
:10212000BDF812107F1C1FFA80F9A8F81210BFB278
:102130006089B842DED80DE1307B022800D0FFDF95
:10214000E98908EBC100ADF804003020ADF8340097
:10215000287B0A90001FC0B20F90002CEBD0618149
:10216000B5F81090002725E0CDF8009068886969DF
:1021700003AA0A9B00F0F9FA0A9804EBC70848443E
:102180001FFA80F908F10C0204A90F9810F0EEFA7A
:1021900018B188F80EB0A8F80CB0BDF80C1001E02A
:1021A000D4E0CFE0A8F81010BDF80E107F1CA8F8FE
:1021B0001210BFB26089B842D6D8CBE00DA800900B
:1021C00001AB224629463046FFF71BFBC2E0307BBD
:1021D000082805D0FFDF03E0307B082800D0FFDFB0
:1021E000E8891030ADF804003620ADF83400002C3A
:1021F0003FD0A9896181F189A18127E0307B09283D
:1022000000D0FFDFA88900F10C01ADF804103721E0
:10221000ADF83410002C2CD06081E8890090AB8997
:10222000688804F10C02296956E0E88939211030E8
:1022300080B2ADF80400ADF83410002C74D0A98938
:102240006181287A0E280AD002212173E989E1816F
:10225000288A0090EB8968886969039A3CE001212B
:10226000F3E70DA8009001AB224629463046FFF760
:1022700059FB6FE0307B0A2800D0FFDF1220ADF859
:102280000400ADF834704CB3A9896181A4F810B092
:10229000A4F80EB084F80C905CE020E002E031E09D
:1022A00039E042E0307B0B2800D0FFDF288AADF810
:1022B00034701230ADF8040084B104212173A9896F
:1022C0006181E989E181298A2182688A00902B8ACB
:1022D000688804F11202696900F047FA3AE0307B3D
:1022E0000C2800D0FFDF1220ADF80400ADF83470E8
:1022F0003CB305212173A4F80AB0A4F80EB0A4F8E9
:1023000010B027E00DA8009001AB224629463046C8
:10231000FFF75CFA1EE00DA8009001AB22462946AB
:102320003046FFF7B6FB15E034E03B21ADF8040082
:10233000ADF8341074B3A4F80690A4F808B084F88B
:102340000AB007E0FFDF05E010000020297A01292C
:1023500017D0FFDFBDF80400AAF800006CB1BDF88B
:1023600034002080BDF804006080BDF834003928B6
:1023700003D03C2801D086F80CB011B00020BDE895
:10238000F08F3C21ADF80400ADF8341014B1697A37
:10239000A172DFE7AAF80000EFE72DE9F8435688BD
:1023A0000F4680461546052130460EF05DFC0400C0
:1023B00000D1FFDF123400943B46414630466A6844
:1023C00009F00FFFBAE570B50D4605210EF04CFC83
:1023D000040000D1FFDF294604F11200BDE870407F
:1023E00009F099BD70B50D4605210EF03DFC0400C5
:1023F00000D1FFDF294604F11200BDE8704009F06A
:10240000B7BD70B5054605210EF02EFC040000D1C5
:10241000FFDF04F1080321462846BDE8704004228E
:10242000B1E470B5054605210EF01EFC040000D194
:10243000FFDF214628462368BDE870400522A2E45C
:1024400070B5064605210EF00FFC040000D1FFDF39
:1024500004F1120009F052FD401D20F0030511E0C7
:10246000011D00880322431821463046FFF78BFCEC
:1024700000280BD0607BABB2684382B26068011D5C
:102480000EF0AFFA606841880029E9D170BD70B5DF
:102490000E46054606F0C2FF040000D1FFDF012012
:1024A000207266726580207820F00F00C01C20F03A
:1024B000F00030302070BDE8704006F0B2BF2DE96A
:1024C000F0438BB00D461446814606A9FFF799FBF1
:1024D000002814D14FF6FF7601274FF420588CB115
:1024E00003208DF800001020ADF8100007A805901B
:1024F00007AA204604A910F058F978B107200BB0BC
:10250000BDE8F0830820ADF808508DF80E708DF806
:102510000000ADF80A60ADF80C800CE00698A178D8
:1025200001742188C1818DF80E70ADF80850ADF8A6
:102530000C80ADF80A606A4602214846069BFFF708
:1025400089FBDCE708B501228DF8022042F6020281
:10255000ADF800200A4603236946FFF73EFC08BD9C
:1025600008B501228DF8022042F60302ADF80020E2
:102570000A4604236946FFF730FC08BD00B587B062
:1025800079B102228DF800200A88ADF80820498828
:10259000ADF80A1000236A460521FFF75BFB07B080
:1025A00000BD1020FBE709B1072316E407207047A0
:1025B00070B588B00D461446064606A9FFF721FB04
:1025C00000280ED17CB10620ADF808508DF800002F
:1025D000ADF80A40069B6A460821DC813046FFF7C9
:1025E00039FB08B070BD05208DF80000ADF808502B
:1025F000F0E700B587B059B107238DF80030ADF88A
:102600000820039100236A460921FFF723FBC6E750
:102610001020C4E770B588B00C460646002506A910
:10262000FFF7EFFA0028DCD106980121123009F0FB
:1026300097FC9CB12178062921D2DFE801F0200522
:1026400005160318801E80B2C01EE28880B20AB14F
:10265000A3681BB1824203D90C20C2E71020C0E757
:10266000042904D0A08850B901E00620B9E7012967
:1026700013D0022905D004291CD005292AD007200F
:10268000AFE709208DF800006088ADF80800E08809
:10269000ADF80A00A068039023E00A208DF800003E
:1026A0006088ADF80800E088ADF80A00A0680A2547
:1026B000039016E00B208DF800006088ADF808004C
:1026C000A088ADF80A00E088ADF80C00A0680B25E2
:1026D000049006E00C208DF8000060788DF808006A
:1026E0000C256A4629463046069BFFF7B3FA78E781
:1026F00000B587B00D228DF80020ADF8081000233A
:102700006A461946FFF7A6FA49E700B587B071B1E6
:1027100002228DF800200A88ADF808204988ADF81B
:102720000A1000236A460621FFF794FA37E71020C3
:1027300035E770B586B0064601200D46ADF80810A5
:102740008DF80000014600236A463046FFF782FA02
:10275000040008D12946304605F09EFC0021304691
:1027600005F0B8FC204606B070BDF8B51C4615460D
:102770000E46069F0EF0AAFB2346FF1DBCB2314653
:102780002A4600940DF095FFF8BD30B41146DDE9FE
:1027900002423CB1032903D0002330BC08F026BB21
:1027A0000123FAE71A8030BC704770B50C46054625
:1027B000FFF72FFB2146284605F07DFC2846BDE8A3
:1027C0007040012105F086BC4FF0E0224FF400413B
:1027D0000020C2F88011204908702049900208604A
:1027E000704730B51C4D04462878A04218BF002C15
:1027F00002D0002818BFFFDF2878A04208BF30BDF4
:102800002C701749154A0020ECB1164DDFF858C05E
:10281000131F012C0DD0022C1CBFFFDF30BD086040
:1028200003200860CCF800504FF4000010601860DE
:1028300030BD086002200860CCF800504FF04070B6
:102840001060186030BD086008604FF06070106064
:1028500030BD00B5FFDF00BD1800002008F50140C5
:1028600000F500408C02002014F5004070B50B20EC
:1028700000F0B5F9082000F0B2F900210B2000F0BB
:10288000C4F90021082000F0C0F9EC4C0125656076
:10289000A5600020C4F84001C4F84401C4F8480110
:1028A0000B2000F0A7F9082000F0A4F90B2000F09D
:1028B0008BF9256070BD10B50B2000F090F9082051
:1028C00000F08DF9DD48012141608160DC490A6832
:1028D000002AFCD10021C0F84011C0F84411C0F812
:1028E00048110B2000F086F9BDE81040082000F0E8
:1028F00081B910B50B2000F07DF9BDE8104008202B
:1029000000F078B900B530B1012806D0022806D011
:10291000FFDF002000BDCB4800BDCB4800BDCA484A
:10292000001D00BD70B5C9494FF000400860C84D9A
:10293000C00BC5F80803C74800240460C5F840412F
:102940000820C43500F04BF9C5F83C41C24804707A
:1029500070BD08B5B94A002128B1012811D002285C
:102960001CD0FFDF08BD4FF48030C2F80803C2F866
:102970004803B3483C300160C2F84011BDE808404C
:10298000D0E74FF40030C2F80803C2F84803AC485F
:1029900040300160C2F84411AB480CE04FF4802095
:1029A000C2F80803C2F84803A54844300160C2F8E1
:1029B0004811A548001D0068009008BD70B5164676
:1029C0000D460446022800D9FFDF00229B48012360
:1029D00004F110018B4000EB8401C1F8405526B191
:1029E000C1F84021C0F8043303E0C0F80833C1F84F
:1029F0004021C0F8443370BD2DE9F0411C46154616
:102A000030B1012834D0022839D0FFDFBDE8F08191
:102A1000891E002221F07F411046FFF7CFFF012CD5
:102A200024D000208C4E8A4F012470703C6189496B
:102A300000203C3908600220091D086085490420F7
:102A40003039086083483D350560C7F800420820EA
:102A500000F0D0F82004C7F80403082000F0B4F810
:102A60007A49E007091F08603470CFE70120D9E7F1
:102A7000012B02D00022012005E00122FBE7012BFF
:102A800004D000220220BDE8F04197E70122F9E7D7
:102A90006B480068704770B500F0C7F8674C054692
:102AA000D4F840010026012809D1D4F80803C00356
:102AB00005D54FF48030C4F80803C4F84061D4F859
:102AC000440101280CD1D4F80803800308D54FF441
:102AD0000030C4F80803C4F84461012010F029FE56
:102AE000D4F8480101280CD1D4F80803400308D5D4
:102AF0004FF48020C4F80803C4F84861022010F0A5
:102B000018FE5648056070BD70B500F08EF8524D45
:102B10000446287858B1FFF705FF687820B10020F7
:102B200085F8010010F005FE4C48046070BD0320DC
:102B3000F8E74FF0E0214FF40010C1F800027047B1
:102B4000152000F057B8424901200861082000F024
:102B500051B83F494FF47C10C1F8080300200246E9
:102B600001EB8003C3F84025C3F84021401CC0B2EC
:102B70000628F5D37047410A43F609525143C0F382
:102B8000080010FB02F000F5807001EB5020704748
:102B900010B5430B48F2376463431B0C5C020C60B6
:102BA0002F4C03FB04002F4B4CF2F72443435B0DE7
:102BB00013FB04F404EB402000F580704012107009
:102BC00008681844086010BD00F01F020121914000
:102BD0004009800000F1E020C0F80011704700F0CB
:102BE0001F02012191404009800000F1E020C0F85F
:102BF0008011704700F01F020121914040098000C0
:102C000000F1E020C0F8801270474907090E002843
:102C100006DA00F00F0000F1E02080F8141D704784
:102C200000F1E02080F8001470470C48001F006895
:102C30000A4A0D49121D11607047000000B00040A3
:102C400004B500404081004044B1004008F5014017
:102C500000800040408500403800002014050240FC
:102C6000F7C2FFFF6F0C0100010000010A4810B518
:102C70000468094909480831086010F0EEFD06486B
:102C8000001D046010BD0649002008604FF0E021DF
:102C90000220C1F8800270471005024001000001C7
:102CA000FC1F004010B50D2000F06FF8C4B26FF0AB
:102CB000040000F06AF8C0B2844200D0FFDF3A4955
:102CC0000120086010BD70B50D2000F048F8374CA9
:102CD0000020C4F800010125C4F804530D2000F0C1
:102CE00049F825604FF0E0216014C1F8000170BD83
:102CF00010B50D2000F033F82C480121416000216F
:102D0000C0F80011BDE810400D2000F033B828488D
:102D100010B5046826492748083108602349D1F8CE
:102D20000001012804D0FFDF2148001D046010BD10
:102D30001D48001D00680022C0B2C1F8002111F03A
:102D400039F9F1E710B51948D0F800110029FBD086
:102D5000FFF7DDFFBDE810400D2000F00BB800F0DC
:102D60001F02012191404009800000F1E020C0F8DD
:102D70008011704700F01F0201219140400980003E
:102D800000F1E020C0F880127047002806DA00F059
:102D90000F0000F1E02090F8140D03E000F1E020B6
:102DA00090F800044009704704D5004000D000406E
:102DB000100502400100000110B5202000F082F84B
:102DC000202000F08AF84A49202081F8000449496F
:102DD00000060860091D48480860FEF79DFA45494D
:102DE000C83108604548D0F8041341F00101C0F82B
:102DF0000413D0F8041341F08071C0F804133C4967
:102E000001201C39C1F8000110BD10B5202000F0D0
:102E100059F8384800210160001D0160354A481EFC
:102E2000E83A1060354AC2F80803324BC8331960DB
:102E3000C2F80001C2F8600131490860BDE81040E5
:102E4000202000F04AB82B492E48EC390860704722
:102E500028492C48E8390860704726480160001D61
:102E6000521E0260704723490120E8390860BFF311
:102E70004F8F704770B51F4A8069E83A2149116049
:102E80001E49D1F8006100231F4D1D4A5C1E1EB172
:102E9000A84206D300210FE0D1F8606186B1A842B4
:102EA00009D2C1F80031C1F860311460BDE870404A
:102EB000202000F012B81168BDE8704021F012BF68
:102EC000FFDF70BD00F01F0201219140400980002A
:102ED00000F1E020C0F88011704700F01F020121CE
:102EE00091404009800000F1E020C0F88012704756
:102EF00020E000E000060240C41400200000024070
:102F00000004024001000001006002000F4A126844
:102F10000D498A420CD118470C4A12680A4B9A4252
:102F200006D101B511F0C0F8FFF78DFFBDE80140F3
:102F3000074909680958084706480749054A064BE2
:102F40007047000000000000BEBAFECAB0000020BA
:102F500004000020E0120020E012002070B50C46B2
:102F6000054609F0DBFA21462846BDE870400AF024
:102F7000C0BB10B511F01EFDFFF726FC11F09EFB43
:102F8000BDE8104011F050BC012081070860704777
:102F9000012081074860704712480068C00700D0D0
:102FA000012070470F48001F0068C00700D00120B3
:102FB00070470C4808300068C00700D001207047F7
:102FC000084810300068704706490C310A68D2037F
:102FD00006D5096801F00301814201D10120704743
:102FE000002070470C0400407047704770477047DE
:102FF000704770477047704770470004050600002F
:103000002CFFFFFFDBE5B15100600200A900FFFFCC
:103010008C000000808D5B0016425791AD5F58BC5C
:103020008E702F5A0FAA100DBCD52BFD30B5FC4D5C
:103030000446062CA9780ED2DFE804F0030E0E0E2B
:103040000509FFDF08E0022906D0FFDF04E00329BD
:1030500002D0FFDF00E0FFDFAC7030BD30B50446CA
:103060001038EF4D07280CD2DFE800F0040C060CF6
:103070000C0C0C00FFDF05E0287E112802D0FFDFDA
:1030800000E0FFDF2C7630BD2DE9F0410FF0F8FCB9
:10309000044610F08CFE201AC5B206200DF08CFDFF
:1030A000044606200DF090FD211ADD4C207E1228EA
:1030B00018D000200F1807200DF07EFD06460720CF
:1030C0000DF082FD301A3918207E13280CD0002014
:1030D0000144A078042809D000200844281AC0B26E
:1030E000BDE8F0810120E5E70120F1E70120F4E7E8
:1030F000CB4810B590F825004108C94800F12600DA
:1031000005D00BF0EBFABDE8104005F0B3BF0BF0B3
:10311000BEFAF8E730B50446A1F120000D460A28B2
:103120004AD2DFE800F005070C1C2328353A3F445B
:10313000FFDF42E0207820283FD1FFDF3DE0B848A4
:103140008178052939D0007E122836D020782428AD
:1031500033D0252831D023282FD0FFDF2DE0207851
:1031600022282AD0232828D8FFDF26E0207822280A
:1031700023D0FFDF21E0207822281ED024281CD075
:1031800026281AD0272818D0292816D0FFDF14E0C7
:103190002078252811D0FFDF0FE0207825280CD0DB
:1031A000FFDF0AE02078252807D0FFDF05E0207840
:1031B000282802D0FFDF00E0FFDF257030BD10B50A
:1031C000012803D0022805D0FFDF10BDBDE8104064
:1031D00003202BE79248007E122800D0FFDF002159
:1031E000052011F0A1F9BDE81040112036E71FB508
:1031F00004466A46002001F01FFEB4B1BDF802206B
:103200004FF6FF700621824201D1ADF80210BDF8E1
:103210000420824201D1ADF80410BDF808108142AB
:1032200003D14FF44860ADF8080068460CF06AF925
:1032300005F020FF04B010BD70B514460D460646DB
:1032400011F0BEF958B90DB1A54201D90C2070BDDD
:10325000002408E056F8240011F0B2F908B110205B
:1032600070BD641CE4B2AC42F4D3002070BD2DE903
:10327000F04105461F4690460E460024006811F0B6
:10328000ECF908B110202BE728680028A88802D0A4
:10329000B84202D84FE00028F5D0092020E728687E
:1032A000025DB2B1611C475C152F2DD03BDC3AD2D8
:1032B000DFE807F03912222228282A2A3131393949
:1032C00039393939393939392200025D32BB641C48
:1032D000A4B2A142F9D833E0022ADED1A21C805C5C
:1032E00088F80000072801D2400701D40A20F7E639
:1032F000307840F0010015E0D043C00707E0012A14
:1033000007D010E00620EBE61007A0F1805000285F
:10331000F5D01846E4E63078820701D50B20DFE6C9
:1033200040F0020030702868005D084484B2A8882C
:10333000A04202D2B1E74FF4485381B2A142AED8C5
:103340000020CDE610B5027843F202235408012292
:10335000022C12D003DC3CB1012C16D106E0032C68
:1033600010D07F2C11D112E0002011E080790324CD
:10337000B4EB901F09D10A700BE08079B2EB901F7B
:1033800003D1F8E780798009F5D0184610BDFF20F9
:103390000870002010BD224991F82E2042B191F80A
:1033A0002F10022909D0032909D043F202207047C7
:1033B00001461B48253001F092BD032100E00121A8
:1033C00001700020704738B50C460546694601F08B
:1033D00086FD00280DD19DF80010207861F347008C
:1033E000207055F8010FC4F80100A888A4F8050062
:1033F000002038BD38B51378B0B1022814D0FF28AA
:103400001BD008A46D46246800944C7905EB9414F5
:10341000247864F34703137003280AD010E00000F7
:10342000D80100200302FF0123F0FE0313700228DD
:10343000F2D1D8B240F0010005E043F0FE00107078
:10344000107820F0010010700868C2F80100888828
:10345000A2F8050038BD02210DF006BC38B50C46B7
:103460000978222901D2082038BDADF800008DF876
:10347000022068460BF079F905F0FCFD050003D148
:1034800021212046FFF746FE284638BD1CB5002006
:103490008DF80000CDF80100ADF80500FE4890F869
:1034A0002E00022801D0012000E000208DF8070046
:1034B00068460BF092FB002800D0FFDF1CBD002205
:1034C0000A80437892B263F345120A8043785B081E
:1034D00063F386120A8000780C282BD2DFE800F014
:1034E0002A06090E1116191C1F220C2742F0110082
:1034F00009E042F01D0008800020704742F01100F2
:1035000012E042F0100040F00200F4E742F0100038
:10351000F1E742F00100EEE742F0010004E042F082
:103520000200E8E742F0020040F00400E3E742F066
:103530000400E0E7072070472DE9FF478AB0002527
:10354000BDF82C6082461C4691468DF81C507007D1
:1035500003D5606811F034F868B9CF4F4FF0010817
:1035600097F82E0058B197F82F00022807D160680D
:1035700011F073F818B110200EB0BDE8F0873007D5
:1035800002D5A08980283DD8700705D4B9F1000F75
:1035900002D097F8240098B3E07DC0F300108DF8B6
:1035A0001B00627D072003215AB3012A2CD0022A76
:1035B000E2D0042AE0D18DF81710F00627D4A27DBE
:1035C000072022B3012A22D0022A23D0042AD3D1F1
:1035D0008DF819108DF81590606810B307A9FFF7E2
:1035E000B1FE0028C8D19DF81C00FF2816D06068E5
:1035F00050F8011FCDF80F108088ADF8130014E0CB
:1036000000E001E00720B7E78DF81780D5E78DF8D7
:103610001980DFE702208DF81900DBE743F2022072
:10362000AAE7CDF80F50ADF81350E07B40B9207CED
:1036300030B9607C20B9A07C10B9E07CC00601D014
:10364000062099E78DF800A0BDF82C00ADF8020027
:10365000A0680190A068029004F10F0001F033FC13
:103660008DF80C000DF10D00FFF795FE00B1FFDFA6
:103670009DF81C008DF80E008DF816508DF818502E
:10368000E07D08A900F00F008DF81A0068460CF0E4
:10369000F8F805F0EFFC6FE7F0B59DB000228DF86B
:1036A00068208DF858208DF8602005468DF86C2034
:1036B000129213921492159219B10FC912AC84E8A8
:1036C0000F00754CA078052801D004280CD1129861
:1036D0006168884200D120B91498E168884203D11A
:1036E00010B108201DB0F0BD1F26334618AA1AA934
:1036F00012A8FFF7BCFD0028F4D133461BAA16A977
:1037000014A8FFF7B4FD0028ECD19DF85800C007BD
:1037100001D00A20E6E7A08A410708D4A17D31B193
:103720009DF86010890702D043F20120DAE79DF886
:103730006010C90709D0400707D4208818B144F2A7
:103740005061884201D90720CCE78DF8005003264C
:103750008DF8016001278DF80270BDF84C208DF8BE
:10376000032001A8129921F0F5F968460CF0F0F851
:1037700005F080FC0028B5D18DF824508DF8256027
:103780008DF82670BDF854208DF827200AA81499CA
:1037900021F0E0F909A80CF028F905F06BFC0028ED
:1037A000A0D112AD241D95E80F0084E80F00002081
:1037B00098E770B586B00D46040005D010F04DFFB7
:1037C00020B1102006B070BD0820FBE72078C107AB
:1037D000A98802D0FF2902D303E01F2901D20920C2
:1037E000F0E7800761D4FFF74FFC38B12078C0F3D1
:1037F000C101012904D0032902D005E01320E1E72B
:10380000254991F8241041B1C0074FF000054FF051
:10381000010604D08DF80F6003E00720D2E78DF891
:103820000F506846FFF7B7FD00B1FFDF2078C0F307
:10383000C1008DF801008DF80250607808B98DF84C
:1038400002606078C00705D09DF8020040F00100DA
:103850008DF802006078800705D59DF8020040F0E1
:1038600002008DF802006078400705D59DF802003F
:1038700040F004008DF802002078C0F380008DF83D
:1038800003006088ADF80600A088ADF80A00207A31
:1038900058B9607A48B901E0D8010020A07A20B96F
:1038A000E07A10B9207BC00601D006208AE704F137
:1038B000080001F008FB8DF80E0068460BF090FA46
:1038C00005F0D8FB00288BD18DF810608DF81150D1
:1038D000ADF81250ADF8145004A80BF0CBFA05F077
:1038E000C9FB00288BD1E08864280AD248B10120A6
:1038F00001F0FFFA002891D12078C00705D01520EB
:1039000004E06421B0FBF1F0F2E71320FFF7A6FB1F
:10391000002057E72DE9FF470220FF4E8DF80400F5
:103920000027708EADF80600B84643F202094CE05D
:1039300001A80DF000F9050006D0708EA8B3A6F816
:103940003280ADF806803EE0039CA07F01072DD5B4
:1039500004F124000090A28EBDF80800214604F175
:10396000360301F056FC050005D04D452AD0112D37
:103970003CD0FFDF3AE0A07F20F00801E07F420862
:1039800062F3C711A177810861F30000E07794F832
:10399000210000F01F0084F820002078282826D17C
:1039A00029212046FFF7B6FB21E014E040070AD5A5
:1039B000BDF8080004F10E0101F0A9FA05000DD0D0
:1039C0004D4510D100257F1CFFB202200DF0F4F808
:1039D000401CB842ACD8052D11D008E0A07F20F0E3
:1039E0000400A07703E0112D00D0FFDF0025BDF813
:1039F00006007086052D04D0284604B0BDE5A6F863
:103A000032800020F9E770B50646FFF724FD054631
:103A100005F004FD040000D1FFDF6680207820F06F
:103A20000F00801C20F0F000203020700620207253
:103A300095F83E006072BDE8704005F0F2BC2DE9DB
:103A4000F04786B0040000D1FFDF2078B24D20F0AF
:103A50000F00801C20F0F00070302070606801784A
:103A6000491F1B2933D2DFE801F0FE32323255FD07
:103A7000320EFDFD42FC32323278FCFCFB32323237
:103A8000FCFCFAF9FC00C6883046FFF7E4FC05466A
:103A9000304607F0A9F8E0B16068007A85F83E008A
:103AA00021212846FFF736FB3046FEF7CCFA304698
:103AB00003F018FE3146012010F036FDA87F20F0FB
:103AC0001000A877FFF726FF002800D0FFDF06B020
:103AD00053E5207820F0F00020302070062020727E
:103AE00066806068007A607205F09BFCD8E7C58844
:103AF0002846FFF7B0FC00B9FFDF606800790128B5
:103B000000D0FFDF6068017A06B02846BDE8F047C4
:103B100007F046BCC6883046FFF79DFC050000D183
:103B2000FFDF05F07EFC606831460089288160680F
:103B30004089688160688089A881012010F0F4FCC8
:103B40000020A875A87F00F003000228BFD1FFF76E
:103B5000E1FE0028BBD0FFDFB9E70079022811D0D1
:103B600000B1FFDF05F05DFC6668B6F806A0307AAC
:103B7000361D01280CD0687E814605F0E7F9070064
:103B800009D107E006B00220BDE8F047FFF717BBF8
:103B9000E878F1E7FFDF0022022150460DF05BF8E4
:103BA000040000D1FFDF22212046FFF7B3FA30796D
:103BB000012800D00220A17F804668F30101A1778F
:103BC000308B2081708B6081B08BA08184F8229033
:103BD0008DF80880B8680090F86801906A46032163
:103BE00050460DF038F800B9FFDFB888ADF8100086
:103BF000B8788DF8120004AA052150460DF02BF874
:103C000000B9FFDFB888ADF80C00F8788DF80E0029
:103C100003AA042150460DF01EF800B9FFDF06216B
:103C200006F1120001F091F938B37079800700D5E0
:103C3000FFDF7179E07D61F34700E075D6F806009B
:103C4000A0617089A083062106F10C0001F07DF9C6
:103C5000E8B195F825004108607805E032E02AE0F7
:103C600047E03FE021E035E061F347006070D5F8C0
:103C70002600C4F80200688D12E0E07D20F0FE000E
:103C8000801CE075D6F81200A061F08ADAE760784F
:103C900020F0FE00801C6070F068C4F80200308ADA
:103CA000E0804046FFF78BFA11E706B02046BDE8FA
:103CB000F04701F037BD05F0B4FB15F8300F40F0C8
:103CC000020005E005F0ADFB15F8300F40F00400F0
:103CD0002870FCE6287E132809D01528E4D1162088
:103CE000FFF7BCF906B0BDE8F04705F09ABB142019
:103CF000F6E7A978052909D00429D5D105F091FB6B
:103D0000022006B0BDE8F047FFF790B9007900281F
:103D1000CAD0E87802E00000D801002001F0BAF82B
:103D200005F07FFB0320ECE72DE9F05F0546007806
:103D30004FF000080009DFF820A891460C464646DF
:103D400001287AD001274FF0020C4FF6FF730228AA
:103D500074D007280BD00A2871D0FFDFA9F80060C3
:103D600014B1A4F8008066800020BDE8F09F696867
:103D700004F108000A78172A70D010DC4FF0000B0D
:103D8000142A31D006DC052A6DD0092A0FD0102A5A
:103D90007ED11FE0152A7CD0162AF9D1F0E01B3A1B
:103DA000052A75D2DFE802F009C5FDDAFC00C888F3
:103DB0004FF012081026214675E14FF01C080A2624
:103DC000D4B38888A0806868807920726868C079D8
:103DD0006072C3E74FF01B0814266CB303202072F7
:103DE00068688088A080B9E70A793C2AB6D00D1DA2
:103DF0004FF010082C26FCB16988A180298B6182C4
:103E0000298B2182698BA182A98BE1826B79024681
:103E1000A91D1846FFF7EEFA2879012810D084F87A
:103E20000FC0FF202076C4F81CB0C4F820B0C4F83E
:103E300024B0C4F828B091E712E013E13BE135E18A
:103E4000E7730AF1040084F818B090E80E00DAF87D
:103E50001000C4E90930C4E907127FE7A8E002E0D6
:103E6000A9F8006080E72C264FF01D08002CF7D041
:103E70000546A380887B2A880F1D60F300022A80F4
:103E8000887B400860F341022A80887B800801E03B
:103E9000E6E0ADE060F382022A80887BB91CC008AE
:103EA00060F3C3022A80B87A0011401C60F3041248
:103EB00002F07F0028807878AA1CFFF79BFA387DF3
:103EC00005F1090207F11501FFF794FA387B01F0BB
:103ED0004BF82874787B01F047F86874F87EA87472
:103EE000787AE87497F83B002875B87B6875A5F870
:103EF00016B0DAF81C00A861397ABAF820008842B6
:103F000001D2014610E0B87AC0F3411002280BD06C
:103F1000012809D0288820F060002880A1840A4662
:103F200007F11C01A86998E0288820F06000403063
:103F3000F3E711264FF02008002C91D0A380686889
:103F400004F10A02007920726868007B6072696877
:103F50008B1D48791946FFF74DFAFFE60A264FF008
:103F60002108002CE9D08888A080686880792072B8
:103F70006868C07960729AF8301021F004018BE013
:103F80000B264FF02208002CD7D0C888A080686884
:103F9000007920726868007A00F0E6FF607201E044
:103FA00052E039E06868407A00F0DEFFA072D5E6A2
:103FB0001C264FF02608002CBFD0A38068684079EB
:103FC00060726868007AA0720AF1040090E80E003E
:103FD000DAF81000C4E90530C4E903126868007912
:103FE0003C2803D043287DD0FFDFB7E62772B5E633
:103FF00010264FF02408002C9FD08888A080686885
:10400000807920816868807A608168680089A081F1
:1040100068688089E081A1E610264FF02308002C13
:104020008BD08888A0806868C088208168680089F3
:10403000608168684089A08168688089E0819AF819
:10404000301021F0020127E030264FF02508002C27
:1040500088D0A38069682822496820F07BFD7DE62E
:104060004A4677E0287A012803D0022817D0FFDFDC
:1040700074E610264FF01F08002C85D06888A080B9
:10408000A8892081E8896081288AA081688AE081E6
:104090009AF8301021F001018AF830105EE64FF0F6
:1040A00012081026688800F03DFF57E62846BDE854
:1040B000F05F01F0C1BC287A07284DD2DFE800F09C
:1040C0004C38384A4A4A040009264FF01108002C9F
:1040D00092D06F883846FFF7BEF990F822A0A780EB
:1040E000687A00E02DE02072042138460CF0CEFD05
:1040F000052138460CF0CAFD002138460CF0C6FDFB
:10410000012138460CF0C2FD032138460CF0BEFDFB
:10411000022138460CF0BAFD062138460CF0B6FDF7
:10412000072138460CF0B2FD504600F0B3FE15E60C
:1041300014264FF01B08002C8AD0A380287A01286F
:1041400002D084F808C009E62772DAE90710C4E94A
:10415000031003E62146A9E7FFDFFFE570B5FE4D3A
:10416000287E122801D0082070BD0BF094F904F0CD
:1041700081FF040002D1687E00F08CFE0021052042
:1041800010F0D2F9204670BD1CB5F348007E13280C
:1041900001D208201CBD00208DF8000068460AF0FE
:1041A00069FE04F067FF0028F4D10021052010F01B
:1041B000BBF91120FEF752FF00201CBD70B501288D
:1041C00005D0052825D0062800D0FFDF70BD8DB2B0
:1041D0002846FFF740F9040000D1FFDF20782128AE
:1041E000F4D005F01BF968B1017821F00F01891CAA
:1041F00021F0F00110310170022101724580002090
:10420000A07528E021462846BDE870401322FFF73C
:1042100025B9D148047EA4F1120005281FD2DFE899
:1042200000F0060303030300FFF7AEFF01E0FFF712
:1042300095FF0028CAD105F0F1F80028C6D0017812
:1042400021F00F01891C21F0F00120310170132CA5
:1042500007D002210172BDE8704005F0E2B8FFDF2F
:1042600070BD0121F6E72DE9F04116460C008046AD
:1042700000D1FFDF307820F00F00801C20F0F0002C
:10428000103030702078012804D0022818D0FFDFC9
:10429000BDE8F0814046FFF7DEF8050000D1FFDF02
:1042A0000320A87505F0BDF894E80F00083686E8ED
:1042B0000F00A94810F8301F41F001010170E7E735
:1042C0004046FFF7C8F8050000D1FFDFA1884FF690
:1042D000FF700027814202D1E288824203D08142EE
:1042E00001D1E08840B105F09CF894E80F00083651
:1042F00086E80F00AF75CBE7A87D0128C8D17823E9
:104300000022414610F066F80220A875C0E738B5D3
:1043100005460C46084610F053F918BB203D062D03
:104320004AD2DFE805F0031B373C4230002106206B
:1043300010F0D0F808B1112038BDA01C0BF07EF9A8
:1043400004F098FE050038D100220823114606200B
:1043500010F040F8062830D0FFDF2EE0606810F043
:1043600073F908B1102038BD618820886A460BF0C7
:104370003BFD04F07FFE05001FD16068E8B1BDF889
:104380000010018019E0A07800F0010120880BF0F6
:1043900061FD0EE0206801F0FDFD05460DE020788E
:1043A00000F001000AF066F903E0618820880BF054
:1043B000A0FC04F05FFEF0E70725284638BD70B585
:1043C00005460C46084610F021F908B1102070BDD2
:1043D000202D07D0212D0DD0222D0BD0252D09D039
:1043E000072070BD2088A11C0AF039FABDE8704092
:1043F00004F040BE062070BD57482530704708B510
:104400003421554820F047FC0120FEF70FFE112013
:10441000FEF724FE50496846263104F095FF4E48C9
:104420009DF8002010F8251F62F3470121F00101DB
:104430000170002141724FF46171A0F80710022150
:104440008172FEF755FE00B1FFDFFCF78FFF01F030
:1044500034F908BD10B50C464021204620F0F9FB88
:10446000A07F20F00300A077202020700020A075FE
:1044700084F8230010BD70472DE9FC41074610F079
:104480009FF810B11020BDE8FC81334E06F12501E4
:10449000D6F825000090B6F82950ADF8045096F8EB
:1044A0002B408DF806403846FEF78DFF0028EAD1F4
:1044B000FEF71EFE0028E6D0009946F8251FB580BD
:1044C000B471E0E710B5044610F0A0F808B1102070
:1044D00010BD21482049224690F825002631400889
:1044E000FEF788FF002010BDFEB50D4604004FF01A
:1044F000000712D00822FEF79FFE002812D10026E6
:1045000009E000BF54F826006946FEF71BFF0028AB
:1045100008D1761CF6B2AE42F4D309F0AEFF10B16A
:1045200043F20320FEBD0C4E86F8247024B300270E
:104530001EE000BF54F8270002A9FEF703FF00B1F8
:10454000FFDF9DF808008DF8000054F8270050F8B0
:10455000011FCDF8011001E0D80100208088ADF8DE
:104560000500684609F0D3FF00B1FFDF7F1CFFB2F2
:10457000AF42DFD386F824500020FEBD2DE9F0477E
:104580008AB01546894604001ED00F4608222946E7
:10459000FEF752FE002810D1002613E054F8260042
:1045A0006946103000F09BFC002806D147B157F84F
:1045B000260010F005F818B110200AB0BDE8F08709
:1045C000761CF6B2AE42E9D30026A5F101081BE045
:1045D00006F1010A0AF0FF0712E000BF54F82600B6
:1045E000017C4A0854F827100B7CB2EB530F05D11D
:1045F00006221130113120F081FA58B17F1CFFB230
:10460000AF42EBD30AF0FF064645E1DB4E4624B14C
:10461000012003E043F20520CFE7002009F0A8FFC6
:1046200010B909F0B9FF10B143F20420C5E75CB33B
:1046300000270DF1170825E054F8270069461030CF
:1046400000F04DFC00B1FFDF54F82700102250F8B5
:10465000111FCDF801108088ADF8050054F827101F
:104660000DF1070020F076FA96B156F827101022C7
:10467000404620F06FFA684609F022FF00B1FFDFE4
:104680007F1CFFB2AF42D7D3FEF700FF002094E7B4
:10469000404601F073FCEEE730B585B004460FF0FC
:1046A0008FFF18B960680FF0D8FF10B1102005B067
:1046B00030BD60884AF2B811884206D82078FB4D98
:1046C00028B1012806D0022804D00720EFE7FEF722
:1046D0000FFD18E06078022804D0032802D043F2CE
:1046E0000220E4E785F82F00C1B200200090ADF869
:1046F000040002292CD0032927D0FFDF684609F0E7
:10470000EDFF04F0B7FC0028D1D1606801F029FC6E
:10471000207858B101208DF800000DF1010001F062
:104720002DFC68460BF0F5FB00B1FFDF207885F823
:104730002E00FEF7ABFE608860B1A88580B209F05C
:104740000FFF00B1FFDF0020B1E78DF80500D5E7CE
:104750004020FAE74FF46170EFE710B504460FF020
:1047600055FF20B9606838B10FF06EFF08B1102016
:1047700010BD606801F002FCCC4830F82C1F61804D
:10478000C178617080782070002010BD2DE9F84359
:104790001446894606460FF039FFA0B948460FF087
:1047A0005CFF80B920460FF058FF60B9BF4DA87874
:1047B000012800D13CB13178FF2906D049B143F23C
:1047C0000400BDE8F8831020FBE7012801D0042095
:1047D000F7E74FF00008A4B3052811D004280FD044
:1047E00069462046FEF76BFE0028EAD1207D48B1DD
:1047F000012809D0022809D0032809D00720E0E7C2
:104800000820DEE7424604E0012202E0022200E046
:1048100003222346174600200099FEF78DFE00284C
:10482000CFD1A0892880A07BE875BDF80000A882C0
:10483000AF75BDF80000000701D5A08988B1A08937
:10484000288049460020FEF727FF0028B9D1A87824
:1048500005280BD0042809D0287DC00703D00320E9
:1048600002E08020ECE70220FEF7E0FB86F8008003
:104870000020A6E77CB58D4C05460E46A0780228A0
:1048800003D0032801D008207CBD15B143F20400F9
:104890007CBD07200CF098F910B9A078032806D049
:1048A000FEF7F2FB28B1A078032804D009E012201B
:1048B0007CBD13207CBD304600F0CBFA0028F9D136
:1048C000E67001208DF800008DF801008DF802508F
:1048D0002088ADF80400E07D8DF8060068460BF0F6
:1048E000C6F904F0C7FB0028E4D1A078032805D05E
:1048F0005FF00400FEF79AFB00207CBDE07800F03A
:10490000B8FA0520F6E71CB510B143F204001CBD4F
:10491000664CA078042803D0052801D008201CBDCF
:1049200000208DF8000001218DF801108DF80200A3
:1049300068460BF09CF904F09DFB0028EFD1A078AD
:10494000052805D05FF00200FEF770FB00201CBDBB
:10495000E07800F09FFA0320F6E72DE9FC4180465D
:104960000E46032508460FF078FE002866D1404623
:10497000FEF771FD040004D02078222804D208201C
:1049800081E543F202007EE5A07F00F003073EB11F
:10499000012F0CD000203146FEF729FC0500EFD195
:1049A000012F06D0022F1AD0FFDF28466BE5012029
:1049B000F1E7A07D3146022801D011B107E01120B6
:1049C00061E56846FCF7DFFD0028D9D1694640461D
:1049D00006F0A9FC0500E8D10120A075E5E7A07D5F
:1049E000032804D1314890F83000C00701D02EB31D
:1049F0000EE026B1A07F40071ED4002100E0012177
:104A0000404606F0B0FC0500CFD1A075002ECCD0FA
:104A10003146404600F07BFA05461128C5D1A07FFB
:104A20004107C2D4316844F80E1F7168616040F0DC
:104A3000040020740025B8E71125B6E7102022E510
:104A400070B50C460546FEF706FD010005D022466E
:104A50002846BDE87040FEF701BD43F2020070BD7C
:104A600010B5012807D1114B9B78012B00D011B153
:104A700043F2040010BD09F0B6FDBDE8104004F09B
:104A8000F9BA012300F010BA00231A46194600F0C3
:104A90000BBA70B506460C4608460FF091FD18B9E2
:104AA00020680FF0B3FD18B1102070BDD8010020B0
:104AB000F64D2A7E112A04D0132A00D33EB10820D5
:104AC000F3E721463046FEF774FE60B1EDE70920BA
:104AD000132A0DD0142A0BD0A188FF29E5D3152065
:104AE000FEF7BCFA0020D4E90012C5E90712DCE7A2
:104AF000A1881F29D9D31320F2E72DE9F047DFF869
:104B00008C93804690B099F818009A4615460C464A
:104B1000132803D3FFF738FB002836D120460FF0C7
:104B20004FFD88BB28460FF04BFD68BB20784FF047
:104B30000107C0074FF0000602D08DF83A7001E07F
:104B40008DF83A602078C0F3C1008DF800006178DC
:104B50000720E1B101291AD0022916D0042914D165
:104B600004208DF809006088ADF80A00A088ADF82F
:104B700010002078C0F3C100012825D0032823D0DD
:104B800040460FF01DFD28B1102010B016E58DF83D
:104B90000970E8E798F80000400808D0012809D01B
:104BA000022807D0032805D043F20220EDE78DF854
:104BB000026001E08DF80270404650F8011FCDF808
:104BC00003108088ADF807000DF10100FEF7E3FB4C
:104BD00008B10320D9E72888ADF816006888ADF839
:104BE0001C00A888ADF82200E888ADF82800ADF8D0
:104BF0002E60ADF8346068460AF057FAE8B999F8C3
:104C000018004D46112801D00820BEE706200BF001
:104C1000DBFF38B12078C0F3C100012804D003289D
:104C200002D004E01220B0E795F8240028B1FEF786
:104C30002BFA022803D21320A7E70720A5E7504646
:104C400000F007F90028A0D185F819A068460AF0FD
:104C50001FFC04F00FFA002897D1687E00F009F9D4
:104C6000E08864280BD250B15FF0010000F041F9F8
:104C700004008AD11220FEF7F1F9204685E764216D
:104C8000B0FBF1F0F2E770B5064615460C46084653
:104C90000FF0BCFC18B928460FF0B8FC08B1102082
:104CA00003E72A46214630460BF081F804F0E2F98A
:104CB0000028F5D121787F29F2D10520F5E67CB5D1
:104CC00005460C4608460FF07BFC08B110207CBD61
:104CD0002846FEF7C0FB20B10078222804D2082025
:104CE0007CBD43F202007CBD684890F8300040076C
:104CF00001D511207CBD2078C00802D16078C008A1
:104D000001D007207CBDADF8005020788DF802005E
:104D100060788DF803000220ADF8040068460AF0C0
:104D200055F804F0A7F97CBD70B586B014460D4661
:104D30000646FEF790FB28B10078222805D208200D
:104D400006B0B2E643F20200FAE728460FF085FC0F
:104D500020B944B120460FF077FC08B11020EFE7EE
:104D600000202060A080494890F83000800701D5DD
:104D70001120E5E703A9304609F0F7FD18B100BF9F
:104D800004F078F9DCE7ADF80060BDF81400ADF888
:104D90000200BDF81600ADF80400BDF81000BDF823
:104DA0001210ADF80600ADF808107DB1298809B1E0
:104DB000ADF80610698809B1ADF80210A98809B1EB
:104DC000ADF80810E98809B1ADF80410DCB1BDF800
:104DD0000610814201D9081A2080BDF80210BDF8E2
:104DE0001400814201D9081A6080BDF80800BDF89E
:104DF0000410BDF816200144BDF812001044814291
:104E000001D9081AA080684609F0E6FEB8E71CB58B
:104E10001F490968CDE9001068460AF048F904F016
:104E200029F91CBD1CB500200090019068460AF0CD
:104E30003EF904F01FF91CBD108008885080488896
:104E40009080C88810818888D0800020508190810F
:104E5000704710B5044604F079F830B1407830B1AD
:104E6000204604F082FB002010BD052010BD12205A
:104E700010BD10B504F06AF8040000D1FFDF6078BF
:104E800000B9FFDF6078401E607010BDD8010020BF
:104E90004050020010B504F059F8040000D1FFDFC3
:104EA0006078401C607010BD1CB5ADF800008DF836
:104EB00002308DF803108DF8042068460AF03CFF9C
:104EC00004F0D8F81CBD0CB52FA2D2E90012CDE930
:104ED00000120079694601EB501000780CBD027891
:104EE000520804D0012A02D043F202207047FEF794
:104EF00029BA10B548B183000022114605200FF0F1
:104F000069FA052801D0032010BD002010BD1FB58F
:104F10006A46FFF791FF68460AF01DFB04F0AAF805
:104F200004B010BD70B50C0006460DD0FEF793FA24
:104F3000050000D1FFDFA6802889208128896081B3
:104F40006889A081A889E081AFE510B500231A46E1
:104F500003E0845C2343521CD2B28A42F9D30BB1E2
:104F6000002010BD012010BD00B540B1012805D0C2
:104F7000022803D0032804D0FFDF002000BDFF205B
:104F800000BD042000BD0000070605040302010067
:104F900010B504460FF014FB08B1102010BD2078A6
:104FA000C0F30210042807D86078072804D3A1783A
:104FB000102901D8814201D2072010BDE0784107B5
:104FC00006D421794A0703D4000701D4080701D584
:104FD000062010BD002010BD10B513785C08837F3B
:104FE00064F3C713837713789C08C37F64F30003CB
:104FF000C3771078C309487863F341004870137889
:105000001C090B7864F347130B701378DB0863F308
:10501000000048705078487110BD10B5C4780B7806
:1050200064F300030B70C478640864F341030B70ED
:10503000C478A40864F382030B70C478E40864F3B2
:10504000C3030B700379117863F3000111700379C6
:105050005B0863F34101117003799B0863F38201DC
:1050600011700079C00860F3C301117010BD70B5F4
:1050700014460D46064604F0D1F980B10178182295
:1050800021F00F01891C21F0F001A03100F8081B6C
:1050900021461FF0A4FDBDE8704004F0C2B92946C6
:1050A0003046BDE870401322FEF7D8B92DE9F0472D
:1050B000064608A8894690E830041F469046142109
:1050C00028461FF0E8FD0021CAF80010B8F1000FD3
:1050D00003D0B9F1000F03D114E03878C00711D024
:1050E00020680FF093FAC0BBB8F1000F07D1206819
:1050F000123028602068143068602068A860216839
:10510000CAF800103878800724D560680FF09CFA40
:1051100018BBB9F1000F21D0FFF76EF90168C6F88E
:1051200068118188A6F86C11807986F86E0101F00B
:1051300002FDF94FEF60626862B196F8680106F20D
:10514000691140081032FEF755F91022394660689F
:105150001FF000FD0020BDE8F08706E0606820B188
:10516000E8606068C6F86401F4E71020F3E730B542
:10517000054608780C4620F00F00401C20F0F00196
:10518000103121700020607095F8230030B10428A0
:105190000FD0052811D0062814D0FFDF2078012178
:1051A000B1EB101F04D295F8200000F01F006070D2
:1051B00030BD21F0F000203002E021F0F00030306E
:1051C0002070EBE721F0F0004030F9E7F0B591B046
:1051D000022715460C4606463A46ADF808700921E6
:1051E00003AB04F07AFF0490002810D004208DF85F
:1051F00004008DF80170E034099605948DF818507C
:105200000AA968460DF022FA00B1FFDF012011B0B3
:10521000F0BD10B588B00C460A99ADF80000C3B1D6
:105220001868CDF802005868CDF80600ADF80A20DD
:10523000102203A81FF08EFC68460AF02FFA03F034
:1052400019FF002803D1A17F41F01001A17708B018
:1052500010BD0020CDF80200E6E72DE9F84F064624
:10526000808A0D4680B28246FEF7F5F80446307813
:10527000DFF8A48200274FF00509A8F120080F28C5
:1052800070D2DFE800F06FF23708387D8CC8F1F09B
:10529000EFF35FF3F300A07F00F00300022809D0D2
:1052A0005FF0000080F0010150460BF0DDFC0500CE
:1052B00003D101E00120F5E7FFDF98F85C10C90792
:1052C00002D0D8F860000BE0032105F11D000EF0BC
:1052D00052FED5F81D009149B0FBF1F201FB12001E
:1052E000C5F81D0070686867B068A8672078252831
:1052F00000D0FFDFCAE0A07F00F00300022809D041
:105300005FF0000080F0010150460BF0ADFC06009C
:1053100003D101E00120F5E7FFDF3078810702D5F6
:105320002178252904D040F001003070BDE8F88FC5
:1053300002202870307F287106F11D002D36C5E946
:105340000206F3E7A07F00F00300022808D0002047
:1053500080F0010150460BF087FC040004D102E00C
:105360000120F5E7A7E1FFDF2078C10604D507207B
:1053700028703D346C60D9E740F008002070D5E714
:10538000E07F000700D5FFDF307CB28800F001032A
:1053900001B05046BDE8F04F092105F027BD04B922
:1053A000FFDF716821B1102204F124001FF0D2FB4D
:1053B00028212046FDF7AEFEA07F00F00300022862
:1053C0000ED104F12400002300901A4621465046D5
:1053D000FFF71FFF112807D029212046FDF79AFE6D
:1053E000307A84F82000A1E7A07F000700D5FFDF16
:1053F00014F81E0F40F008002070E782A761E761F3
:10540000C109607861F34100014660F38201617077
:10541000307AE0708AE7A07F00F00300022809D00C
:105420005FF0000080F0010150460BF01DFC04000D
:1054300003D101E00120F5E7FFDF022104F185003F
:105440000EF099FD0420287004F5B4706860B4F87B
:1054500085002882304810387C346C61C5E90280B0
:1054600064E703E024E15BE02DE015E0A07F00F0BD
:105470000300022807D0002080F0010150460BF005
:10548000F3FB18B901E00120F6E7FFDF32462146C1
:105490005046BDE8F84FEAE504B9FFDF207821283F
:1054A000A1D93079012803D1E07F40F00800E077EE
:1054B000324621465046FFF7DAFD2046BDE8F84F58
:1054C0002321FDF727BE3279AA8005F108030921BF
:1054D000504604F002FEE86010B185F8009025E720
:1054E000A07F00F00300022808D0002080F0010116
:1054F00050460BF0B9FB040003D101E00120F5E7B1
:10550000FFDF04F1620102231022081F0BF033FABF
:1055100007703179417009E73802002040420F00DE
:10552000A07F00F00300022808D0002080F00101D5
:1055300050460BF099FB050003D101E00120F5E78F
:10554000FFDF95F8840000F0030001287AD1A07FE6
:1055500000F00307E07F10F0010602D0022F04D113
:1055600033E095F8A000C0072BD0D5F8601121B327
:1055700095F88320087C62F387000874A17FCA092C
:10558000D5F8601162F341000874D5F8601166F334
:1055900000000874AEB1D5F86001102204F12401B6
:1055A00088351FF0D7FA287E40F001002876287849
:1055B00020F0010005F8880900E016B1022F04D0A0
:1055C0002DE095F88800C00727D0D5F85C1121B3ED
:1055D00095F88320087C62F387000874A17FCA09CC
:1055E000D5F85C1162F341000874D5F85C1166F3DC
:1055F000000008748EB1D5F85C01102204F124017A
:1056000088351FF0A7FA287840F0010005F8180B3C
:10561000287820F0010005F8A009022F44D00020CE
:1056200000EB400005EBC00090F88800800709D52A
:1056300095F87C00D5F86421400805F17D01103211
:10564000FDF7D8FE8DF8009095F884006A4600F0CA
:1056500003008DF8010095F888108DF8021095F878
:10566000A0008DF803002146504601F04DFA207845
:10567000252805D0212807D0FFDF2078222803D94C
:1056800022212046FDF746FDA07F00F003000228FE
:105690000CD0002080F0010150460BF0F7FA0028F2
:1056A0003FF44FAEFFDF41E60120B9E70120F1E70B
:1056B000706847703AE6FFDF38E670B5FE4C0025AB
:1056C00084F85C5025660CF08EFF04F11001204632
:1056D00003F060FE84F8305070BD70B50D46FDF7E4
:1056E000BAFE040000D1FFDF4FF4B87128461FF066
:1056F000D2FA04F124002861A07F00F00300022800
:1057000008D0012105F1E0000CF06EFF002800D068
:10571000FFDF70BD0221F5E70A46014602F1E00015
:105720000CF082BF70B50546406886B001780A2942
:1057300006D00D2933D00E292FD0FFDF06B070BD63
:1057400086883046FDF787FE040000D1FFDF207811
:105750002128F3D028281BD1686802210E3001F0DF
:10576000C8F9A8B168680821801D01F0C2F978B1B4
:1057700004F1240130460AF07CFA03F07BFC00B10E
:10578000FFDF06B02046BDE870402921FDF7C2BC0E
:1057900006B0BDE8704003F044BE012101726868A4
:1057A000C6883046FDF757FE040000D1FFDFA07F1A
:1057B00000F00301022902D120F01000A077207828
:1057C00021280AD06868017A09B1007980B1A07FE8
:1057D00000F00300022862D0FFDFA07F00F003008A
:1057E0000228ABD1FEF796F80028A7D0FFDFA5E787
:1057F00003F017FEA17F08062BD5E07FC00705D078
:1058000094F8200000F01F00102820D05FF0050061
:1058100084F82300207829281DD02428DDD13146A2
:1058200004200EF081FE22212046FDF773FCA07FAC
:1058300000F00300022830D05FF0000080F001018A
:1058400030460BF023FA0028C7D0FFDFC5E706205B
:10585000DEE70420DCE701F00300022808D0002086
:1058600080F0010130460BF0FFF9050003D101E0A3
:105870000120F5E7FFDF25212046FDF74BFC032043
:105880008DF80000694605F1E0000CF0C4FE022826
:10589000A3D00028A1D0FFDF9FE70120CEE703F0CF
:1058A000C0FD9AE72DE9F04387B099461646884631
:1058B0000746FDF7D0FD04004BD02078222848D3BE
:1058C000232846D0E07F000743D4A07F00F00300E8
:1058D000022809D05FF0000080F0010138460BF08B
:1058E000C3F9050002D00CE00120F5E7A07F00F02D
:1058F0000300022805D00121002238460BF0ABF945
:1059000005466946284601F026F9009800B9FFDFF0
:1059100045B10098E03505612078222806D024287A
:1059200004D007E000990020086103E0252120460B
:10593000FDF7F0FB0098012141704762868001A9C4
:10594000C0E902890CF082FE022802D0002800D0B3
:10595000FFDF07B0BDE8F08370B586B00546FDF700
:105960007AFD017822291ED9807F00F003000228E9
:1059700008D0002080F0010128460BF075F90400E2
:105980002FD101E00120F5E7FFDF2AE0B4F85E0047
:1059900004F1620630440178427829B12146284654
:1059A000FFF714FCB0B9C9E6ADF804200921284678
:1059B00002AB04F092FB03900028F4D005208DF890
:1059C0000000694604F1E0000CF025FE022801D039
:1059D00000B1FFDF02231022314604F15E000BF01C
:1059E00000F8B4F860000028D0D1A7E610B586B062
:1059F0000446FDF730FD017822291BD9807F00F095
:105A00000300022808D0002080F0010120460BF09E
:105A10002BF9040003D101E00120F5E7FFDF0620A8
:105A20008DF80000694604F1E0000CF0F4FD002858
:105A300000D0FFDF06B010BD2DE9F05F05460C4633
:105A400000270078904601093E4604F1080BBA464B
:105A500002297DD0072902D00A2909D146E06868C9
:105A600001780A2905D00D2930D00E292ED0FFDF6C
:105A7000BCE114271C26002C6BD08088A080FDF789
:105A8000EAFC5FEA000900D1FFDF99F817005A46E7
:105A9000400809F11801FDF7ADFC6868C089208253
:105AA000696851F8060FC4F812004868C4F8160077
:105AB000A07E20F0060001E01802002040F0010066
:105AC000A07699F81E0040F020014DE01A270A2622
:105AD000002CD1D0C088A080FDF7BDFC050000D10E
:105AE000FFDF59462846FFF742FB7FE10CB1A88B48
:105AF000A080287A0B287DD006DC01287BD00228E4
:105B000008D0032804D135E00D2875D00E2874D0B4
:105B1000FFDF6BE11E270926002CADD0A088FDF722
:105B20009AFC5FEA000900D1FFDF287B00F0030048
:105B30000128207A1BD020F001002072297B8908DF
:105B400061F341002072297BC90861F3820001E002
:105B500041E1F2E02072297B090961F3C300207260
:105B600099F81E0040F0400189F81E103EE140F017
:105B70000100E2E713270D26002CAAD0A088FDF72C
:105B80006AFC8146807F00F00300022808D00020D4
:105B900080F00101A0880BF067F8050003D101E057
:105BA0000120F5E7FFDF99F81E0000F00302022A4A
:105BB00050D0686F817801F003010129217A4BD020
:105BC00021F00101217283789B0863F34101217266
:105BD0008378DB0863F38201217283781B0963F306
:105BE000C3012172037863F306112172437863F3D2
:105BF000C71103E061E0A9E090E0A1E0217284F820
:105C000009A0C178A172022A29D00279E17A62F34F
:105C10000001E1720279520862F34101E1720279F6
:105C2000920862F38201E1720279D20862F3C30141
:105C3000E1724279217B62F30001217342795208BB
:105C400062F3410121734279920862F38201217368
:105C5000407928E0A86FADE741F00101B2E7427951
:105C6000E17A62F30001E1724279520862F3410184
:105C7000E1724279920862F38201E1724279D208BC
:105C800062F3C301E1720279217B62F300012173A7
:105C90000279520862F3410121730279920862F39A
:105CA000820121730079C00860F3C301217399F860
:105CB0000000232831D9262140E018271026E4B31C
:105CC000A088FDF7C8FB8346807F00F00300022810
:105CD00009D0002080F00101A0880AF0C5FF5FEA2A
:105CE000000903D101E00120F4E7FFDFE868A060CC
:105CF00099F8000040F0040189F8001099F80100BB
:105D0000800708D5012020739BF8000023286DD957
:105D10002721584651E084F80CA067E015270F268C
:105D20005CB1A088FDF797FB814606225946E868DA
:105D300008F089F90120A073A2E041E048463CE068
:105D400016270926E4B3287B20724FE0287B192709
:105D50000E26ACB3C4F808A0A4F80CA0012807D004
:105D6000022805D0032805D0042803D0FFDF0DE06A
:105D7000207207E0697B042801F00F0141F08001E7
:105D800021721ED0607A20F003006072A088FDF7B7
:105D900062FB05460078212828D0232800D0FFDFA9
:105DA000A87F00F00300022813D0002080F001013A
:105DB000A0880AF06BFF22212846FDF7ABF915E019
:105DC00004E0607A20F00300401CDEE7A8F80060E1
:105DD00011E00120EAE70CB16888A080287A032846
:105DE0002ED004280AD0052850D0FFDFA8F8006084
:105DF0000CB1278066800020BDE8F09F15270F2694
:105E0000002CE3D0A088FDF726FB807F00F0030084
:105E1000022809D05FF0000080F00101A0880AF09C
:105E200023FF050003D101E00120F5E7FFDFD5F8EE
:105E30001D000622594608F006F984F80EA0D5E7A1
:105E400017270926002CC1D0A088FDF704FB814646
:105E5000807F00F00300022808D0002080F00101BC
:105E6000A0880AF001FF050003D101E00120F5E759
:105E7000FFDF6878800701D5022000E00120207252
:105E800099F800002328B1D9272157E719270E26B2
:105E9000002C9BD0A088FDF7DEFA5FEA000900D154
:105EA000FFDFC4F808A0A4F80CA084F808A0A07A2A
:105EB00040F00300A07299F81E10C90961F3820036
:105EC000A07299F81F2099F81E1012EAD11F05D070
:105ED00099F8201001F01F0110292BD020F00800A4
:105EE000A07299F81F10607A61F3C3006072697A3A
:105EF00001F003010129A2D140F00400607299F879
:105F00001E0000F003000228E87A16D0217B60F31F
:105F100000012173AA7A607B62F300006073EA7A61
:105F2000520862F341012173A97A490861F34100E3
:105F300060735BE740F00800D2E7617B60F300012B
:105F40006173AA7A207B62F300002073EA7A520818
:105F500062F341016173A97A490861F3410020733A
:105F600044E710B5FE4C30B10146102204F1200088
:105F70001EF0F0FD012084F8300010BD10B504467D
:105F800000F0D9FDF64920461022BDE8104020312E
:105F90001EF0E0BD70B5F24D06004FF0000413D0C6
:105FA0000EF00EFB08B110240CE00621304608F07C
:105FB00031F8411C05D028665FF0010085F85C00CF
:105FC00000E00724204670BD0020F7E7007810F0BD
:105FD0000F0204D0012A05D0022A0CD110E00009DA
:105FE00009D10AE00009012807D0022805D00328BA
:105FF00003D0042801D007207047087000207047A4
:106000000620704705282AD2DFE800F003070F17A3
:106010001F00087820F0FF001EE0087820F00F0035
:10602000401C20F0F000103016E0087820F00F003F
:10603000401C20F0F00020300EE0087820F00F0027
:10604000401C20F0F000303006E0087820F00F000F
:10605000401C20F0F00040300870002070470720FE
:1060600070472DE9F041804688B00D46002708466C
:106070000EF0F3FAA8B94046FDF7EDF9040003D09D
:106080002078222815D104E043F2020008B0BDE8D0
:10609000F08145B9A07F410603D500F00300022836
:1060A00001D01020F2E7A07FC10601D4010702D57C
:1060B0000DB10820EAE7E17F090701D50D20E5E7EA
